:020000040800F2
:100000000050002051520008391600083B16000825
:100010003D1600083F1600084116000800000000C9
:10002000000000000000000000000000431600086F
:100030004516000800000000471600084916000891
:1000400099520008995200089952000899520008E4
:1000500099520008995200089952000899520008D4
:1000600099520008995200089952000899520008C4
:1000700099520008995200089952000899520008B4
:1000800099520008995200089952000899520008A4
:100090009952000899520008995200089952000894
:1000A0009952000899520008995200089952000884
:1000B0009952000899520008995200089952000874
:1000C000995200085116000861160008995200085C
:1000D00099520008995200087116000899520008B8
:1000E0009952000899520008995200080000000037
:1000F0000000000000000000000000000000000000
:0C01000000000000000000005FF808F1A3
:10011000034613F8012B002AFBD1181A0138704747
:1001200081F0004102E000BF83F0004330B54FEAA8
:1001300041044FEA430594EA050F08BF90EA020F15
:100140001FBF54EA000C55EA020C7FEA645C7FEAA8
:10015000655C00F0E2804FEA5454D4EB5555B8BFCB
:100160006D420CDD2C4480EA020281EA030382EA3C
:10017000000083EA010180EA020281EA0303362DCE
:1001800088BF30BD11F0004F4FEA01314FF4801CA1
:100190004CEA113102D0404261EB410113F0004FB3
:1001A0004FEA03334CEA133302D0524263EB43036A
:1001B00094EA050F00F0A780A4F10104D5F1200E08
:1001C0000DDB02FA0EFC22FA05F2801841F1000163
:1001D00003FA0EF2801843FA05F359410EE0A5F137
:1001E00020050EF1200E012A03FA0EFC28BF4CF068
:1001F000020C43FA05F3C01851EBE37101F000451E
:1002000007D54FF0000EDCF1000C7EEB00006EEB2A
:100210000101B1F5801F1BD3B1F5001F0CD34908B4
:100220005FEA30004FEA3C0C04F101044FEA44520B
:1002300012F5800F80F09A80BCF1004F08BF5FEA92
:10024000500C50F1000041EB045141EA050130BD72
:100250005FEA4C0C404141EB0101013C28BFB1F584
:10026000801FE9D291F0000F04BF01460020B1FACF
:1002700081F308BF2033A3F10B03B3F120020CDAA2
:100280000C3208DD02F1140CC2F10C0201FA0CF080
:1002900021FA02F10CE002F11402D8BFC2F1200CE5
:1002A00001FA02F120FA0CFCDCBF41EA0C0190409B
:1002B000E41AA2BF01EB0451294330BD6FEA0404E4
:1002C0001F3C1CDA0C340EDC04F11404C4F12002CF
:1002D00020FA04F001FA02F340EA030021FA04F3E1
:1002E00045EA030130BDC4F10C04C4F1200220FA38
:1002F00002F001FA04F340EA0300294630BD21FA76
:1003000004F0294630BD94F0000F83F4801306BF3B
:1003100081F480110134013D4EE77FEA645C18BF2F
:100320007FEA655C29D094EA050F08BF90EA020FC6
:1003300005D054EA000C04BF1946104630BD91EABE
:10034000030F1EBF0021002030BD5FEA545C05D1C1
:100350004000494128BF41F0004130BD14F5800400
:100360003CBF01F5801130BD01F0004545F0FE4174
:1003700041F470014FF0000030BD7FEA645C1ABFA9
:10038000194610467FEA655C1CBF0B46024650EAE0
:10039000013406BF52EA033591EA030F41F400210C
:1003A00030BD00BF90F0000F04BF0021704730B592
:1003B0004FF4806404F132044FF000054FF0000167
:1003C00050E700BF90F0000F04BF0021704730B528
:1003D0004FF4806404F1320410F0004548BF4042FD
:1003E0004FF000013EE700BF42004FEAE2014FEA52
:1003F00031014FEA02701FBF12F07F4393F07F4F2D
:1004000081F06051704732F07F4208BF704793F02F
:100410007F4F04BF41F40021704730B54FF4607442
:1004200001F0004521F000411CE700BF50EA010245
:1004300008BF704730B54FF000050AE050EA0102EE
:1004400008BF704730B511F0004502D5404261EB5E
:1004500041014FF4806404F132045FEA915C3FF49F
:10046000D8AE4FF003025FEADC0C18BF03325FEA3C
:10047000DC0C18BF033202EBDC02C2F1200300FAED
:1004800003FC20FA02F001FA03FE40EA0E0021FA12
:1004900002F11444BDE600BF70B54FF0FF0C4CF400
:1004A000E06C1CEA11541DBF1CEA135594EA0C0FB2
:1004B00095EA0C0F00F0DEF82C4481EA030621EAED
:1004C0004C5123EA4C5350EA013518BF52EA033528
:1004D00041F4801143F4801338D0A0FB02CE4FF0DA
:1004E0000005E1FB02E506F00042E0FB03E54FF00A
:1004F0000006E1FB03569CF0000F18BF4EF0010E02
:10050000A4F1FF04B6F5007F64F5407404D25FEAFD
:100510004E0E6D4146EB060642EAC62141EA5551B0
:100520004FEAC52040EA5E504FEACE2EB4F1FD0CF2
:1005300088BFBCF5E06F1ED8BEF1004F08BF5FEA70
:10054000500E50F1000041EB045170BD06F0004622
:1005500046EA010140EA020081EA0301B4EB5C04CF
:10056000C2BFD4EB0C0541EA045170BD41F48011C7
:100570004FF0000E013C00F3AB8014F1360FDEBFEC
:10058000002001F0004170BDC4F10004203C35DAC8
:100590000C341BDC04F11404C4F1200500FA05F34B
:1005A00020FA04F001FA05F240EA020001F00042EC
:1005B00021F0004110EBD37021FA04F642EB060162
:1005C0005EEA430E08BF20EAD37070BDC4F10C048C
:1005D000C4F1200500FA04F320FA05F001FA04F250
:1005E00040EA020001F0004110EBD37041F100013C
:1005F0005EEA430E08BF20EAD37070BDC4F1200547
:1006000000FA05F24EEA020E20FA04F301FA05F2AE
:1006100043EA020321FA04F001F0004121FA04F256
:1006200020EA020000EBD3705EEA430E08BF20EA26
:10063000D37070BD94F0000F0FD101F00046400060
:1006400041EB010111F4801F08BF013CF7D041EAE2
:10065000060195F0000F18BF704703F000465200E6
:1006600043EB030313F4801F08BF013DF7D043EAB7
:100670000603704794EA0C0F0CEA135518BF95EA6D
:100680000C0F0CD050EA410618BF52EA4306D1D1F4
:1006900081EA030101F000414FF0000070BD50EA13
:1006A000410606BF1046194652EA430619D094EA9D
:1006B0000C0F02D150EA013613D195EA0C0F05D187
:1006C00052EA03361CBF104619460AD181EA0301DB
:1006D00001F0004141F0FE4141F470014FF0000093
:1006E00070BD41F0FE4141F4780170BD70B54FF02E
:1006F000FF0C4CF4E06C1CEA11541DBF1CEA1355AE
:1007000094EA0C0F95EA0C0F00F0A7F8A4EB05048F
:1007100081EA030E52EA03354FEA013100F0888086
:100720004FEA03334FF0805545EA131343EA12634F
:100730004FEA022245EA111545EA10654FEA002604
:100740000EF000419D4208BF964244F1FD0404F5BD
:10075000407402D25B084FEA3202B61A65EB030519
:100760005B084FEA32024FF480104FF4002CB6EBD6
:10077000020E75EB030E22BFB61A754640EA0C0056
:100780005B084FEA3202B6EB020E75EB030E22BF96
:10079000B61A754640EA5C005B084FEA3202B6EBD7
:1007A000020E75EB030E22BFB61A754640EA9C0096
:1007B0005B084FEA3202B6EB020E75EB030E22BF66
:1007C000B61A754640EADC0055EA060E18D04FEA24
:1007D000051545EA16754FEA06164FEAC30343EAC4
:1007E00052734FEAC2025FEA1C1CC0D111F4801F91
:1007F0000BD141EA00014FF000004FF0004CB6E78A
:1008000011F4801F04BF01430020B4F1FD0C88BF28
:10081000BCF5E06F3FF6AFAEB5EB030C04BFB6EB33
:10082000020C5FEA500C50F1000041EB045170BD26
:100830000EF0004E4EEA113114EB5C04C2BFD4EB53
:100840000C0541EA045170BD41F480114FF0000ED7
:10085000013C90E645EA060E8DE60CEA135594EA53
:100860000C0F08BF95EA0C0F3FF43BAF94EA0C0F56
:100870000AD150EA01347FF434AF95EA0C0F7FF4CB
:1008800025AF104619462CE795EA0C0F06D152EA1F
:1008900003353FF4FDAE1046194622E750EA410603
:1008A00018BF52EA43067FF4C5AE50EA41047FF414
:1008B0000DAF52EA43057FF4EBAE12E74FF0FF3C79
:1008C00006E000BF4FF0010C02E000BF4FF0010C4A
:1008D0004DF804CD4FEA410C7FEA6C5C4FEA430CC3
:1008E00018BF7FEA6C5C1BD001B050EA410C0CBF12
:1008F00052EA430C91EA030F02BF90EA020F002074
:10090000704710F1000F91EA030F58BF994208BFDA
:1009100090422CBFD8176FEAE37040F00100704797
:100920004FEA410C7FEA6C5C02D150EA013C07D1EE
:100930004FEA430C7FEA6C5CD6D152EA033CD3D039
:100940005DF8040B704700BF8446104662468C4633
:100950001946634600E000BF01B5FFF7B7FF002866
:1009600048BF10F1000F01BD4DF808EDFFF7F4FF8F
:100970000CBF012000205DF808FB00BF4DF808ED1A
:10098000FFF7EAFF34BF012000205DF808FB00BF3D
:100990004DF808EDFFF7E0FF94BF012000205DF85F
:1009A00008FB00BF4DF808EDFFF7CEFF94BF012014
:1009B00000205DF808FB00BF4DF808EDFFF7C4FF0D
:1009C00034BF012000205DF808FB00BF4FEA410C56
:1009D0007FEA6C5C02D150EA013C0AD14FEA430C39
:1009E0007FEA6C5C02D152EA033C02D14FF0000076
:1009F00070474FF0010070474FEA410212F50012B4
:100A000015D211D56FF47873B3EB625212D94FEA55
:100A1000C12343F0004343EA505311F0004F23FA3F
:100A200002F018BF404270474FF00000704750EA94
:100A3000013005D111F0004008BF6FF00040704751
:100A40004FF00000704700BF80F0004002E000BFA0
:100A500081F0004142001FBF5FEA410392EA030FA9
:100A60007FEA226C7FEA236C6AD04FEA1262D2EBF3
:100A70001363C1BFD218414048404140B8BF5B42F8
:100A8000192B88BF704710F0004F40F4000020F091
:100A90007F4018BF404211F0004F41F4000121F0A7
:100AA0007F4118BF494292EA030F3FD0A2F10102F1
:100AB00041FA03FC10EB0C00C3F1200301FA03F12F
:100AC00000F0004302D5494260EB4000B0F5000F52
:100AD00013D3B0F1807F06D340084FEA310102F111
:100AE0000102FE2A51D2B1F1004F40EBC25008BFC3
:100AF00020F0010040EA03007047490040EB00008D
:100B0000013A28BFB0F5000FEDD2B0FA80FCACF18D
:100B1000080CB2EB0C0200FA0CF0AABF00EBC250BA
:100B200052421843BCBFD0401843704792F0000FA8
:100B300081F4000106BF80F400000132013BB5E7FB
:100B40004FEA41037FEA226C18BF7FEA236C21D071
:100B500092EA030F04D092F0000F08BF08467047D6
:100B600090EA010F1CBF0020704712F07F4F04D1A4
:100B7000400028BF40F00040704712F100723CBFB7
:100B800000F50000704700F0004343F0FE4040F4E1
:100B9000000070477FEA226216BF08467FEA23639F
:100BA0000146420206BF5FEA412390EA010F40F48A
:100BB000800070474FF0000304E000BF10F00043D6
:100BC00048BF40425FEA000C08BF704743F09643BD
:100BD00001464FF000001CE050EA010208BF7047D8
:100BE0004FF000030AE000BF50EA010208BF70475F
:100BF00011F0004302D5404261EB41015FEA010C74
:100C000002BF84460146002043F0B64308BFA3F16B
:100C10008053A3F50003BCFA8CF2083AA3EBC2534D
:100C200010DB01FA02FC634400FA02FCC2F120026C
:100C3000BCF1004F20FA02F243EB020008BF20F0A3
:100C40000100704702F1200201FA02FCC2F1200209
:100C500050EA4C0021FA02F243EB020008BF20EAFE
:100C6000DC7070474FF0FF0C1CEAD0521EBF1CEA2C
:100C7000D15392EA0C0F93EA0C0F6FD01A4480EA1A
:100C8000010C400218BF5FEA41211ED04FF0006303
:100C900043EA501043EA5111A0FB01310CF000402F
:100CA000B1F5000F3EBF490041EAD3715B0040EA55
:100CB000010062F17F02FD2A1DD8B3F1004F40EB25
:100CC000C25008BF20F00100704790F0000F0CF0F8
:100CD000004C08BF49024CEA502040EA51207F3ABC
:100CE000C2BFD2F1FF0340EAC250704740F4000097
:100CF0004FF00003013A5DDC12F1190FDCBF00F088
:100D000000407047C2F10002410021FA02F1C2F135
:100D1000200200FA02FC5FEA310040F1000053EAD1
:100D20004C0308BF20EADC70704792F0000F00F01F
:100D3000004C02BF400010F4000F013AF9D040EA25
:100D40000C0093F0000F01F0004C02BF490011F4B9
:100D5000000F013BF9D041EA0C018FE70CEAD153B7
:100D600092EA0C0F18BF93EA0C0F0AD030F0004C37
:100D700018BF31F0004CD8D180EA010000F00040EB
:100D8000704790F0000F17BF90F0004F084691F0A9
:100D9000000F91F0004F14D092EA0C0F01D14202E3
:100DA0000FD193EA0C0F03D14B0218BF084608D1AC
:100DB00080EA010000F0004040F0FE4040F40000F6
:100DC000704740F0FE4040F4400070474FF0FF0C89
:100DD0001CEAD0521EBF1CEAD15392EA0C0F93EAD0
:100DE0000C0F69D0A2EB030280EA010C49024FEA22
:100DF000402037D04FF0805343EA111143EA1013DB
:100E00000CF000408B4238BF5B0042F17D024FF492
:100E1000000C8B4224BF5B1A40EA0C00B3EB510F6D
:100E200024BFA3EB510340EA5C00B3EB910F24BF56
:100E3000A3EB910340EA9C00B3EBD10F24BFA3EBDB
:100E4000D10340EADC001B0118BF5FEA1C1CE0D1A3
:100E5000FD2A3FF650AF8B4240EBC25008BF20F056
:100E6000010070470CF0004C4CEA50207F32C2BFAA
:100E7000D2F1FF0340EAC250704740F400004FF047
:100E80000003013A37E792F0000F00F0004C02BF78
:100E9000400010F4000F013AF9D040EA0C0093F042
:100EA000000F01F0004C02BF490011F4000F013B9C
:100EB000F9D041EA0C0195E70CEAD15392EA0C0F04
:100EC00008D142027FF47DAF93EA0C0F7FF470AF3C
:100ED000084676E793EA0C0F04D14B023FF44CAF7F
:100EE00008466EE730F0004C18BF31F0004CCAD114
:100EF00030F000427FF45CAF31F000437FF43CAF50
:100F00005FE700BF0348044B834202D0034B03B1A9
:100F100018477047D4010020D401002000000000D1
:100F20000548064B1B1AD90F01EBA301491002D04B
:100F3000034B03B118477047D4010020D4010020AF
:100F40000000000010B5064C237843B9FFF7DAFF24
:100F5000044B13B10448AFF300800123237010BD8C
:100F6000D401002000000000707C000808B5054B8B
:100F70001BB105490548AFF30080BDE80840FFF705
:100F8000CFBF00BF00000000D8010020707C000827
:100F900030B589B0002404940594069407941D4B41
:100FA0009A6942F010029A619A6902F01002009266
:100FB000009A9A6942F020029A619A6902F020022E
:100FC0000192019A9A6942F004029A619A6902F0C8
:100FD00004020292029A9A6942F008029A619B699D
:100FE00003F008030393039B0B4D012240F21311FE
:100FF000284601F0F9FC40F23313049301230593D2
:1010000006940223079304A9284601F0DFFB09B0E8
:1010100030BD00BF001002400008014008B508487C
:10102000084B03604FF4E133436000238360C360E7
:1010300003610C2242618361C36100F0E8FC08BDDA
:10104000F00100200044004008B50948094B036046
:10105000094B436000238360C3604FF48042026108
:1010600043618361C361036202F0F2FA08BD00BF0D
:101070003802002000580040A086010010B5144638
:101080004FF0FF3392B2024800F0F1FC204610BD51
:10109000F001002030B595B0282200210DEB0200B0
:1010A00004F090FF00240594069407940894099492
:1010B000019402940394049401220A924FF4803321
:1010C0000B930E920225119512934FF4E013139394
:1010D0000AA800F075FF0F230593069507944FF4B7
:1010E000806308930994294605A801F09BF90195AE
:1010F0004FF40043039301A801F070FA15B030BD1E
:1011000000B587B000F00EFFFFF7C4FFFFF740FF08
:10111000FFF784FFFFF798FF00F042F81C4A04AB8A
:1011200092E8030083E80300184600F0E7F958B39B
:1011300002AA03A904A800F013FA012104A800F0F0
:101140006FFA4FF4FA6000F011FF002104A800F0DC
:1011500067FA02AA03A904A800F002FA0398FFF7AD
:1011600043F904460D460298FFF73EF9CDE9000128
:1011700022462B46074804F0DDFD00F0EDF841F271
:10118000883000F0F3FEE4E7034804F0D3FDCFE736
:10119000887C0008B07C0008987C0008704700003C
:1011A00008B54FF4FA6000F0E1FE064804F02AFEAC
:1011B000054804F027FE054804F024FE044804F026
:1011C00021FE08BDDC7C00081C7D00085C7D000859
:1011D0009C7D0008D1F88030013303F07F03D1F803
:1011E0008420934204D0D1F880208854C1F8803004
:1011F0007047000008B503681A68D96812F0200F1C
:1012000002D011F0200F06D112F0800F02D011F0A1
:10121000800F08D108BD1A685868104B1968C0B211
:10122000FFF7D8FFF6E70E4AD2F88010D2F88420F4
:1012300091420ED00A4AD2F88430D15CD2F8843080
:10124000013303F07F03C2F8843003681A685960E1
:10125000E0E7DA6822F08002DA60DBE78C02002047
:101260009002002000B583B002AB03E9030003F055
:10127000CBFE40B90321054B1970054804F05AFD17
:1012800003B05DF804FBFFF789FFF3E76403002078
:10129000DC7D000800B583B002AB03E90300BDF8B4
:1012A000041007290CD0082910D0062904D10423E2
:1012B0001268094804F03EFD012003B05DF804FB0C
:1012C00004235268044804F035FDF5E704239268CE
:1012D000014804F02FFDEFE7247E000870B582B0CE
:1012E00002AB03E9030004464FF0FF3103F0E2FCD8
:1012F00098B9BDF80430072B11D0082B1CD0062B51
:101300000BD1144D2E68204603F096FD30602A68FC
:1013100002AB13E90300FFF7BDFF02B070BD0D4D36
:101320002E68204603F088FD70602A6802AB13E93E
:101330000300FFF7AFFFF0E7064D2E68204603F0ED
:101340007BFDB0602A6802AB13E90300FFF7A2FF40
:10135000E3E700BF5403002030B583B0424D0124C1
:101360002C70424B93E8030002AB03E903002146D3
:101370003F4804F0DFFC3F4B3F4A1A6002212970CE
:101380003E4804F0D7FC3E483E4B03600023836098
:10139000047303754FF46022C2614360046103F07B
:1013A000D3FE002854D106232F4A137036490B6010
:1013B00001234B6000238B60314803F041FD00287E
:1013C00049D10621314804F0B5FC6C4694E803008D
:1013D000FFF748FF94E80300FFF780FF0723224A46
:1013E0001370ADF8043028490B6001234B600023D3
:1013F0008B60234803F024FD80BB0721234804F0C1
:1014000099FC6C4694E80300FFF72CFF94E8030076
:10141000FFF764FF0823144A1370ADF804301A492B
:101420000B6001234B6000238B60154803F008FD1F
:10143000B8B90821154804F07DFC6C4694E8030017
:10144000FFF710FF94E80300FFF748FF03B030BD3B
:10145000FFF7A4FEA7E7FFF7A1FEB2E7FFF79EFEA6
:10146000CBE7FFF79BFEE4E764030020907C0008D5
:10147000687E00085403002058030020947E000872
:10148000240300200024014018030020C87E000827
:1014900084460022FF200DE04000C0B20133072B3C
:1014A00007D810F0800FF7D04000C0B280F03100B4
:1014B000F4E701328A4204D21CF80230584000237B
:1014C000EDE7704741EA0020704700B585B00B0A90
:1014D0008DF80C308DF80D108188490089B21E23DB
:1014E0000093022303AA006802F090F918B90120C2
:1014F00005B05DF804FB0020FAE7000000B587B0F6
:1015000003460068026AC2B99988490089B21E235D
:1015100002930323019305AB009302234FF22D3274
:1015200002F0DCFB78B9022105A8FFF7B1FF9DF8B6
:10153000163083420BD1012006E0064B064A2921D2
:10154000064803F0ABFE002007B05DF804FB002066
:10155000FAE700BFF07E00084C7F0008307F0008EB
:10156000F0B585B004460E46154642F60641FFF733
:10157000ACFF012000F0FAFCA3885B0099B21E23A7
:101580000093062302AA206802F0FCF9002838D153
:10159000022102A8FFF77CFF044602210DF10B0097
:1015A000FFF776FF9DF80A30A3422DD19DF80D304C
:1015B00083422BD19DF809109DF80800FFF782FFA8
:1015C00007469DF80C109DF80B00FFF77BFF0446C3
:1015D0003846FFF7EFFA0E49FFF744FB0D49FFF7D6
:1015E000F5FB0D49FFF734FA30602046FFF7E2FAC9
:1015F0000A49FFF737FB0749FFF7E8FB286001209E
:1016000000E0002005B0F0BD0020FBE70020F9E776
:1016100000002F4300FF7F47000034420000C84213
:1016200008B521B143F26D01FFF74FFF08BD43F24A
:101630006601FFF74AFFF9E7FEE7FEE7FEE7FEE790
:10164000FEE770477047704708B500F07DFC08BDA5
:1016500008B5024803F0F6F908BD00BF38020020C3
:1016600008B5024803F0BEFA08BD00BF38020020EA
:1016700010B5044C204600F0EDFA2046FFF7BAFD05
:1016800010BD00BFF001002082B00E4B9A6942F0FD
:1016900001029A619A6902F001020092009ADA69E5
:1016A00042F08052DA61DB6903F080530193019BC1
:1016B000054A536823F0E06343F00073536002B0BF
:1016C000704700BF001002400000014000B587B025
:1016D000002302930393049305930268114B9A42EB
:1016E00002D007B05DF804FB03F56C439A6942F43D
:1016F00000729A619A6902F400720092009A9A69E3
:1017000042F004029A619B6903F004030193019B78
:10171000402302930323039302A9034801F056F8E0
:10172000DFE700BF002401400008014010B586B08B
:10173000002302930393049305930268194B9A4282
:1017400001D006B010BD184CA36943F00803A36193
:10175000A36903F008030093009B4FF440630293D6
:10176000122303930323059302A9104801F02EF8D6
:10177000E36943F48003E361E36903F480030193C5
:10178000019B00221146212001F0EEF9212001F0F9
:10179000FBF900221146222001F0E6F9222001F097
:1017A000F3F9CEE70058004000100240000C014061
:1017B00030B587B000230293039304930593026826
:1017C0001B4B9A4201D007B030BD03F5E633DA690E
:1017D00042F40032DA61DA6902F400320092009ACF
:1017E0009A6942F004029A619B6903F00403019331
:1017F000019B0423029302230393032305930D4DBE
:1018000002A9284600F0E2FF082302930024039473
:1018100004940DEB0301284600F0D8FF2246214630
:10182000262001F0A1F9262001F0AEF9CBE700BF98
:101830000044004000080140026802F10C0353E834
:10184000003F23F490730C3242E800310029F3D1B9
:10185000026802F1140353E8003F23F0010314323D
:1018600042E800310029F3D1036B012B05D020237E
:1018700080F84230002303637047026802F10C03D2
:1018800053E8003F23F010030C3242E800310029F6
:10189000F3D1ECE790F84130DBB2212B01D00220EC
:1018A00070478368B3F5805F17D0036A5A1C0262E1
:1018B0001A7803685A60C38C9BB2013B9BB2C38405
:1018C0004BB90268D36823F08003D3600268D36801
:1018D00043F04003D360002070470369002BE4D13C
:1018E000036A1B880268C3F308035360036A023368
:1018F0000362E0E710B504460268136923F440531D
:10190000C1680B43136183680269134342691A4338
:101910000168CB6823F4B05323F00C031343CB606E
:101920000268536923F4407381690B435361026871
:10193000134B9A4220D000F031FE024602EB8202A5
:1019400002EB820263689B00B2FBF3F20D48A0FB3E
:1019500002314909642303FB11231B013233A0FB2D
:1019600003035B0903F0F00202EB011203F00F0323
:10197000216813448B6010BD00F020FE0246DDE7B5
:10198000003801401F85EB512DE9F04383B0054637
:101990000E4617469946DDF828802B681C6836EA03
:1019A00004040CBF01240024BC4228D1B8F1FF3F3D
:1019B000F3D000F0D5FAA0EB0900404523D8B8F1E8
:1019C000000F22D02B68DA6812F0040FE5D0802EC9
:1019D000E3D0402EE1D01A6812F0080FDDD00024C9
:1019E00001941A6801925B680193019B2846FFF7F6
:1019F00023FF08236B6485F84040012000E00020AD
:101A000003B0BDE8F0830320FAE70320F8E760B3F2
:101A100010B5044690F8413013B3242384F84130C4
:101A20002268D36823F40053D3602046FFF762FF97
:101A30002268136923F4904313612268536923F0E9
:101A40002A0353612268D36843F40053D360002013
:101A50006064202384F8413084F84230606310BD14
:101A600080F84030FFF7A4FED7E7012070472DE94A
:101A7000F04182B01E4690F84130DBB2202B56D1A7
:101A800004460D469046002955D00AB901204FE082
:101A900000234364212380F8413000F061FA0746B7
:101AA000A4F82480A4F82680A368B3F5805F02D050
:101AB0004FF0000814E023692BB34FF000080FE04B
:101AC000202384F84130032032E038F8023B2268BA
:101AD000C3F308035360E28C92B2013A92B2E284FB
:101AE000E38C9BB293B100963B46002280212046B6
:101AF000FFF74AFF0028E3D1002DE6D015F8012BAF
:101B000023685A60E7E7A8460025E9E700963B46C8
:101B1000002240212046FFF737FF18B9202384F820
:101B2000413005E0202384F84130032000E002200A
:101B300002B0BDE8F0810120FAE7704708B50168FE
:101B4000CA6822F04002CA60202280F84120FFF7D4
:101B5000F4FF002008BD7047704708B5406A0023B5
:101B6000C385C384FFF7F8FF08BD704790F8423083
:101B7000DBB2222B69D18368B3F5805F4FD0826AD4
:101B8000B3F5805F04D0002B56D10369002B53D1ED
:101B900003685B681370836A01338362C38D9BB2F1
:101BA000013B9BB2C385002B51D100B583B00268C5
:101BB000D36823F02003D3600268D36823F48073D2
:101BC000D3600268536923F001035361202380F836
:101BD000423000234363036B012B33D100230363A3
:101BE000026802F10C0353E8003F23F010030C32AB
:101BF00042E800310029F3D103681A6812F0100F8F
:101C000006D0002201921A6801925B680193019B41
:101C1000818DFFF7AAFF002003B05DF804FB026985
:101C2000002AACD1826A03685B68C3F3080313809F
:101C3000836A02338362B1E703685B6803F07F0362
:101C40001370A8E7FFF787FFE5E702207047002041
:101C50007047000010B582B0044602681368D0686F
:101C6000516913F00F0F09D113F0200F0CD010F0B1
:101C7000200F09D02046FFF779FF16E011F001018F
:101C800015D110F4907F12D1216B012979D013F076
:101C9000800F03D010F0800F40F0138113F0400F3D
:101CA00003D010F0400F40F0108102B010BD13F0CF
:101CB000010F06D010F4807F03D0626C42F0010265
:101CC000626413F0040F04D019B1626C42F0020296
:101CD000626413F0020F04D019B1626C42F0040286
:101CE000626413F0080F07D010F0200F00D119B173
:101CF000626C42F008026264626C002AD5D013F074
:101D0000200F02D010F0200F29D123685B6903F067
:101D10004003626C12F0080F00D163B32046FFF756
:101D20008BFD23685B6913F0400F20D0226802F11D
:101D3000140353E8003F23F04003143242E800311B
:101D40000029F3D1E36B73B1624A5A63E06B00F090
:101D500075FE0028A9D0E06B436B9847A5E72046A5
:101D6000FFF704FFD1E72046FFF7F6FE9DE7204688
:101D7000FFF7F2FE99E72046FFF7EEFE00236364CB
:101D800093E713F0100F82D010F0100F3FF47FAFE5
:101D9000002301931368019353680193019B5369D6
:101DA00013F0400F51D0E26B13685B689BB2002BBD
:101DB0003FF47BAFA18D99427FF677AFE3859369BE
:101DC000202B37D0226802F10C0353E8003F23F4A4
:101DD00080730C3242E800310029F3D1226802F10D
:101DE000140353E8003F23F00103143242E80031AA
:101DF0000029F3D1226802F1140353E8003F23F0D5
:101E00004003143242E800310029F3D1202384F842
:101E1000423000232363226802F10C0353E8003FA1
:101E200023F010030C3242E800310029F3D1E06BBB
:101E300000F0E0FD02236363A18DE38D9BB2C91A1C
:101E400089B22046FFF791FE2FE7A18DE38D9BB26B
:101E5000C91A89B2E38D9BB2002B3FF426AF00294B
:101E60003FF423AF226802F10C0353E8003F23F450
:101E700090730C3242E800300028F3D1226802F15E
:101E8000140353E8003F23F00103143242E800300A
:101E90000028F3D1202384F84230002323632268F2
:101EA00002F10C0353E8003F23F010030C3242E828
:101EB00000300028F3D1022363632046FFF755FE6C
:101EC000F3E62046FFF7E6FCEFE62046FFF736FE96
:101ED000EBE600BF5B1B000810B504460E4B1A78FA
:101EE0004FF47A73B3FBF2F30C4A1068B0FBF3F0D3
:101EF00000F058FE68B90F2C01D901200AE0002239
:101F000021464FF0FF3000F02FFE054B1C600020F3
:101F100000E0012010BD00BF0000002008000020EC
:101F20000400002008B5074A136843F0100313604B
:101F3000032000F007FE0F20FFF7CEFFFFF7A4FB02
:101F4000002008BD00200240034A1168034B1B78A3
:101F50000B441360704700BF68030020000000209E
:101F6000014B1868704700BF6803002038B504466D
:101F7000FFF7F6FF0546B4F1FF3F02D0044B1B7894
:101F80001C44FFF7EDFF401BA042FAD338BD00BF51
:101F90000000002082B0084B1B68084AA2FB032304
:101FA0005B0A00FB03F3019300BF019B5A1E0192E1
:101FB000002BF9D102B0704708000020D34D621009
:101FC000002800F0F18170B582B00446036813F078
:101FD000010F2CD0994B5B6803F00C03042B1DD030
:101FE000964B5B6803F00C03082B12D06368B3F5C3
:101FF000803F41D0002B55D103F1804303F50433DA
:102000001A6822F480321A601A6822F480221A6058
:1020100037E08A4B5B6813F4803FE7D0874B1B683F
:1020200013F4003F03D06368002B00F0BF812368E6
:1020300013F0020F75D0814B5B6813F00C0F5FD06B
:102040007E4B5B6803F00C03082B54D02369002BF4
:1020500000F08A807A4B01221A60FFF781FF054663
:10206000764B1B6813F0020F75D1FFF779FF401B09
:102070000228F5D903209EE1704A136843F48033A7
:102080001360636843B3FFF76BFF05466B4B1B6838
:1020900013F4003FCBD1FFF763FF401B6428F5D951
:1020A000032088E1B3F5A02F09D0644B1A6822F40D
:1020B00080321A601A6822F480221A60E1E703F184
:1020C0008043A3F53C331A6842F480221A601A68F0
:1020D00042F480321A60D4E7FFF742FF0546574BBF
:1020E0001B6813F4003FA2D0FFF73AFF401B64289F
:1020F000F5D903205FE1514B5B6813F4803FA5D114
:102100004E4B1B6813F0020F03D02369012B40F0E4
:102110004F814A4A136823F0F803616943EAC10317
:102120001360236813F0080F33D0A369002B5CD031
:10213000434B0122C3F88024FFF712FF05463F4BB3
:102140005B6A13F0020F21D1FFF70AFF401B022840
:10215000F5D903202FE1394A136823F0F8036169A8
:1021600043EAC1031360DCE7354B00221A60FFF736
:10217000F7FE0546314B1B6813F0020FD1D0FFF775
:10218000EFFE401B0228F5D9032014E10120FFF7E0
:1021900001FF236813F0040F00F09680274BDB69E2
:1021A00013F0805F34D1254BDA6942F08052DA6156
:1021B000DB6903F080530193019B0125214B1B68D0
:1021C00013F4807F26D0E368012B3DD0002B53D140
:1021D00003F1804303F504331A6A22F001021A6204
:1021E0001A6A22F004021A6233E0154B0022C3F887
:1021F0008024FFF7B5FE0546104B5B6A13F0020F13
:10220000C7D0FFF7ADFE401B0228F5D90320D2E06E
:102210000025D3E70B4A136843F480731360FFF77C
:102220009FFE0646074B1B6813F4807FCBD1FFF758
:1022300097FE801B6428F5D90320BCE00010024003
:1022400000004242007000405F4A136A43F00103FD
:102250001362E36833B3FFF783FE06465A4B1B6AEB
:1022600013F0020F2FD1FFF77BFE801B41F2883362
:102270009842F3D903209EE0052B09D0524B1A6AED
:1022800022F001021A621A6A22F004021A62E0E7DE
:102290004D4B1A6A42F004021A621A6A42F00102B5
:1022A0001A62D6E7FFF75CFE0646474B1B6A13F03F
:1022B000020F08D0FFF754FE801B41F2883398428A
:1022C000F3D9032077E0E5B9E369002B72D03E4AE9
:1022D000526802F00C02082A56D0022B17D03B4B52
:1022E00000221A66FFF73CFE0446374B1B6813F0CA
:1022F000007F47D0FFF734FE001B0228F5D90320EA
:1023000059E0314AD36923F08053D361DCE72F4B86
:1023100000221A66FFF724FE05462B4B1B6813F0BC
:10232000007F06D0FFF71CFE401B0228F5D90320D2
:1023300041E0236AB3F5803F1AD023494B6823F468
:102340007413226A606A024313434B601F4B0122DD
:102350001A66FFF705FE04461B4B1B6813F0007F4F
:102360000ED1FFF7FDFD001B0228F5D9032022E066
:10237000154A536823F40033A1680B435360DCE72C
:10238000002018E0002016E0012B16D00E4B5B68F1
:1023900003F48031226A914211D103F47013626A0E
:1023A00093420ED1002006E001207047012002E098
:1023B000012000E0002002B070BD0120FBE70120F9
:1023C000F9E70120F7E700BF001002400000424299
:1023D0000F4B5B6803F00C02082A01D00D487047D0
:1023E000C3F383420C49885C13F4803F0BD0084B45
:1023F0005B68C3F34043094AD35C064A02FB00F022
:10240000B0FBF3F07047064B03FB00F0704700BFD2
:102410000010024000127A006C7F0008687F0008FC
:1024200000093D00002800F0A08070B50D4604466C
:10243000524B1B6803F007038B420BD24F4A1368C1
:1024400023F007030B431360136803F007038B4269
:1024500040F08D80236813F0020F17D013F0040FA3
:1024600004D0474A536843F4E0635360236813F091
:10247000080F04D0424A536843F460535360404A03
:10248000536823F0F003A1680B435360236813F0F3
:10249000010F31D06368012B20D0022B25D0384AA0
:1024A000126812F0020F64D035494A6822F0030224
:1024B00013434B60FFF754FD0646314B5B6803F056
:1024C0000C036268B3EB820F16D0FFF749FD801B47
:1024D00041F288339842F0D9032045E0284A126837
:1024E00012F4003FE0D101203EE0254A126812F0CC
:1024F000007FD9D1012037E0204B1B6803F0070390
:10250000AB420AD91D4A136823F007032B4313601B
:10251000136803F00703AB422DD1236813F0040FB7
:1025200006D0174A536823F4E063E1680B43536015
:10253000236813F0080F07D0114A536823F460533F
:10254000216943EAC1035360FFF742FF0C4B5B680C
:10255000C3F303130B4AD35CD8400B4B18600B4BEF
:102560001868FFF7B9FC002070BD012070470120FA
:10257000FAE70120F8E70120F6E700BF002002405B
:1025800000100240987F000808000020040000208E
:10259000014B1868704700BF0800002008B5FFF71E
:1025A000F7FF044B5B68C3F30223034AD35CD840B4
:1025B00008BD00BF00100240907F000808B5FFF77B
:1025C000E7FF044B5B68C3F3C223034AD35CD840E4
:1025D00008BD00BF00100240907F000870B582B0B7
:1025E0000446036813F0010F36D03F4BDB6913F04C
:1025F000805F49D13C4BDA6942F08052DA61DB6995
:1026000003F080530193019B0125384B1B6813F4A1
:10261000807F3BD0344B1B6A13F4407313D0626845
:1026200002F440729A420ED02F4A136A23F440708B
:102630002F490126C1F840640026C1F840641062A9
:1026400013F0010F36D1284A136A23F440736168EE
:102650000B431362002D3ED1236813F0020F06D006
:10266000214A536823F44043A1680B435360236815
:1026700013F0100F34D01C4A536823F48003E16830
:102680000B43536000202CE00025BEE7174A136877
:1026900043F480731360FFF763FC0646134B1B681B
:1026A00013F4807FB6D1FFF75BFC801B6428F5D95B
:1026B000032016E0FFF754FC06460B4B1B6A13F091
:1026C000020FC0D1FFF74CFC801B41F288339842C7
:1026D000F3D9032005E0D36923F08053D361BBE72E
:1026E000002002B070BD00BF00100240007000402A
:1026F0000000424208B502284ED0102803D001281D
:1027000028D0002052E02B4B5A68186810F08070D7
:102710004CD0C2F383432849C85C12F4803F15D0E3
:10272000244B5B68C3F34043244AD25C244BB3FB85
:10273000F2F303FB00F01F4B5B6813F4800F35D1FD
:102740004000204BA3FB003040082FE01E4B03FB52
:1027500000F0F0E7174B1B6A40F202321A40B2F564
:10276000817F24D003F44073B3F5007F04D0B3F528
:10277000407F09D0002019E00E4A526A12F0020F81
:10278000F5D049F6404011E00A4B186810F40030CB
:102790000CD04FF2244009E0FFF710FF054B5B68B7
:1027A000C3F3813301335B00B0FBF3F008BD4FF49A
:1027B0000040FBE700100240807F00087C7F00089B
:1027C00000127A00ABAAAAAA00093D0070B582B037
:1027D0000024A446A1E07E4DAB4214D00CD8A5F550
:1027E0008015AB420FD005F57025AB420BD0A5F597
:1027F0008015AB4210D106E0764DAB4203D005F513
:102800008035AB4208D18B68002B50D0012B49D0CA
:102810004261082400E0CC68BEF1FF0F49D80646AB
:102820004FEA8C0233680F25954023EA050304FA2A
:1028300002F2134333604B6813F0805F6BD0664B3A
:102840009A6942F001029A619B6903F001030193C6
:10285000019B4FEA9C02951C604B53F825600CF0DD
:102860000305AD000F23AB4026EA03065C4B9842FC
:1028700026D003F58063984200F08C8003F58063D6
:10288000984200F0898003F58063984216D00423B3
:1028900017E0CC680434BFE7CC680834BCE7CC68E8
:1028A0000C34B9E702610824B6E70024B4E7042435
:1028B000B2E7061DACF108029200B3E7032300E083
:1028C0000023AB4033430232444D45F822304B687D
:1028D00013F4801F62D0434A936843EA0E03936067
:1028E0004B6813F4001F5FD03E4AD36843EA0E03DF
:1028F000D3604B6813F4003F5CD03A4A536843EA14
:102900000E0353604B6813F4803F59D0354A136867
:1029100043EA0E0313600CF1010C0B6833FA0CF25E
:1029200054D0012202FA0CF203EA020E32EA030347
:10293000F1D14B68122B3FF64EAF122B3FF66CAF26
:1029400001A555F823F000BF072800081728000844
:1029500099280008AB280008192800081928000841
:102960001928000819280008192800081928000843
:102970001928000819280008192800081928000833
:1029800019280008192800081928000893280008A9
:102990009F280008012394E7022392E7114A9368D5
:1029A00023EA0E0393609BE70E4AD36823EA0E03E3
:1029B000D3609EE70B4A536823EA0E035360A1E7F6
:1029C000084A136823EA0E031360A4E702B070BD3F
:1029D00000002210000031100010024000000140F1
:1029E00000080140000401400AB101617047090478
:1029F00001617047034690F82120D2B2022A06D026
:102A000004228263002280F82020012070470168A0
:102A10000A6822F00E020A6001680A6822F00102C8
:102A20000A60026CC06B012101FA02F2426083F875
:102A30002110002083F820007047000008B590F8AE
:102A40002130DBB2022B03D004238363012008BDB5
:102A50000268136823F00E0313600268136823F002
:102A6000010313600368194A934214D0143293424D
:102A70001FD0143293421ED0143293421ED014320F
:102A800093421ED01432934202D04FF0807203E082
:102A90004FF4801200E001220D4B5A60012380F8B0
:102AA0002130002380F82030436B6BB19847002021
:102AB000CDE71022F0E74FF48072EDE74FF480523B
:102AC000EAE74FF48032E7E70020C0E70800024061
:102AD0000000024090F8210070470000002808DB49
:102AE0000901C9B200F1604000F5614080F80013AF
:102AF000704700F00F000901C9B2014B195470472B
:102B000014ED00E000B500F00700C0F1070CBCF1C7
:102B1000040F28BF4FF0040C031D062B0FD9C31E52
:102B20004FF0FF3E0EFA0CF021EA000199400EFA38
:102B300003FE22EA0E0241EA02005DF804FB0023D4
:102B4000EEE70000074AD36823F4E0631B041B0C84
:102B5000000200F4E060034343F0BF6343F400333A
:102B6000D360704700ED00E010B50446054BD8680F
:102B7000C0F30220FFF7C6FF01462046FFF7AEFF75
:102B800010BD00BF00ED00E0002807DB00F01F02D1
:102B9000400901239340024A42F82030704700BFA9
:102BA00000E100E00138B0F1807F0BD24FF0E0236C
:102BB0005861054AF02182F823100020986107220D
:102BC0001A6170470120704700ED00E07047000077
:102BD00010B503460C4A0D490D48006840B10C4839
:102BE00000680344521A934206D8094A136010BD84
:102BF0000748084C0460F2E703F036FA0C23036040
:102C00004FF0FF30F3E700BF005000200004000049
:102C10006C030020C00400200120704708B503F0B9
:102C200023FA162303604FF0FF3008BD08B54FF0BC
:102C3000FF31FFF7F3FFFEE770B50C46164600259F
:102C400006E0AFF30080214601F8010B01350C4688
:102C5000B542F6DB304670BD4FF0FF3070474FF4A1
:102C600000534B60002070470120704700207047E0
:102C700003685A6912F0800F01D000221A61704770
:102C800090F83E30DBB2402B10D00369B3F5804F93
:102C90001BD0036D002B39D1436CC3F3C8130268FA
:102CA00003F0060343F0F00313617047036D2BB983
:102CB000436C026803F0FE0313617047436C0268C3
:102CC00043F00103DBB21361704790F83D30DBB293
:102CD000212B0FD0436C026843F00103DBB2136178
:102CE000436B6BB19B6A5BB10268536843F400634A
:102CF00053607047436C026803F0FE031361EFE713
:102D0000836B33B19B6A002BEED102E0036D012B84
:102D100000D07047436CC3F3C813026803F0060386
:102D200043F0F1031361F4E7436C0268DBB2136113
:102D3000436B3BB19B6A2BB10268536843F4006359
:102D400053607047836B002BFBD09B6A002BF3D141
:102D5000F7E7000010B48DB090F83E30DAB2C16AE7
:102D6000046B90F83D30DBB2222B0AD000230B938A
:102D700003685A690B929B690B930B9B0DB010BCB7
:102D80007047036D0BB9402A17D0036D1BB9036957
:102D9000B3F5404F19D0438D9BB2002B25D103933F
:102DA00003685A6903929A690392039A1A6842F473
:102DB00000721A6000230365E0E7019303685A6913
:102DC00001929B690193019BD8E70023029303685A
:102DD0005A6902929A690292029A1A6842F48072BF
:102DE0001A60036D01330365C8E7438D9BB2012B65
:102DF00026D0438D9BB2022B7CD00268136843F42B
:102E00008063136003685A6812F4006F0FD02029A2
:102E100000F2B9800829C0F0B28008395C4ACA4083
:102E200012F0010F03D05A6842F480525A60002316
:102E30000A9303685A690A929B690A930A9BB9E745
:102E400011F5803F11D0082934D0202932D0122C1E
:102E50002ED0042940D002293ED010293CD002684F
:102E6000136823F4806313603BE00268136823F463
:102E70008063136003685A6812F4006F0CD01A68FC
:102E800022F480621A600023049303685A69049252
:102E90009B690493049B8DE7002205925A69059271
:102EA0009A690592059A1A6842F400721A6081E7DD
:102EB0000129D0D00268136823F4806313600023D3
:102EC000079303685A6907929A690792079A1A68E2
:102ED00042F400721A606DE70268136843F480637D
:102EE00013600023069303685A6906929B69069350
:102EF000069B5FE7102912D8264BCB4013F0010F39
:102F00000DD00268136843F48063136000230993B3
:102F100003685A6909929B690993099B10E002684A
:102F2000136843F4006313600023089303685A692D
:102F300008929A690892089A1A6822F480621A60C4
:102F400003685A6812F4006F3FF434AF202911D897
:102F500008290BD308390E4ACA4012F0010F3FF47A
:102F600029AF5A6842F480525A6023E701297FF45E
:102F700021AFF6E711F5803F7FF41CAFF1E701299F
:102F80007FF455AF4FE711F5803F7FF450AF4AE72C
:102F90000101000114000100438D9BB25BB1426A44
:102FA000036812781A61436A01334362438D9BB20E
:102FB000013B9BB243857047438D9BB25BB1036875
:102FC0001A69436A1A70436A01334362438D9BB2A4
:102FD000013B9BB24385704782B0002301930E4BA7
:102FE0001B68DB080D4AA2FB03231B0A03EB8303C8
:102FF0000193019B013B0193019B33B103681B6863
:1030000013F4007FF5D1002004E0036C43F02003AB
:103010000364012002B070470800002089B5F8144D
:1030200003685A6912F4806F01D1002070476FF471
:1030300080625A6100230363202280F83D2080F8DB
:103040003E30026C42F00402026480F83C30012001
:103050007047C36AB3F52A0F04D0C36AB3F12A4F8D
:1030600003D070470123C36270470823C362F8E7A7
:103070002DE9F04106460C46174698463BE0FEF720
:103080006FFF069BC01A404502D8B8F1000F32D13D
:10309000012D18D033689B6924EA03039BB2B3FA6D
:1030A00083F35B099F4226D100233363202286F8F5
:1030B0003D2086F83E30326C42F02002326486F8C1
:1030C0003C30012027E033685B6924EA03039BB2AC
:1030D000B3FA83F35B09E5E733685B6924EA030C21
:1030E0001FFA8CFCBCFA8CFC4FEA5C1C674511D1C2
:1030F000B8F1FF3FC3D1C4F30745012DECD03368CD
:103100009B6924EA030C1FFA8CFCBCFA8CFC4FEA86
:103110005C1CEBE70020BDE8F0812DE9F843054693
:103120000E469046994653E01A6842F400721A60BF
:103130002B686FF480625A6100232B63202285F88C
:103140003D2085F83E302A6C42F004022A6485F85E
:103150003C3001204AE0FEF703FFA0EB09004045A8
:1031600002D8B8F1000F33D1012F17D02B689B691B
:1031700026EA03039BB2003B18BF012343B300239D
:103180002B63202285F83D2085F83E302A6C42F0E2
:1031900020022A6485F83C30012027E02B685B6917
:1031A00026EA03039BB2003B18BF0123E6E72B6826
:1031B0009C6926EA0404A4B2003C18BF0124A4B10F
:1031C0002B685A6912F4806FAED1B8F1FF3FC2D1BB
:1031D000C6F30747012FEAD12B685C6926EA04048D
:1031E000A4B2003C18BF0124E9E70020BDE8F88341
:1031F000F0B583B004460D4616461F46C36A082B39
:103200000DD0012B0BD013F5803F08D0036B122B90
:103210000AD10268136843F48073136004E02268E3
:10322000136843F4807313600097334600224FF015
:1032300001112046FFF71CFF80B92369B3F5804FC9
:1032400016D1236805F0FE051D613B463246134941
:103250002046FFF762FFF8B903B0F0BD23681B6892
:1032600013F4807F02D04FF4007323640320F3E74C
:10327000EB11226803F0060343F0F00313613B46B1
:10328000324607492046FFF748FF18B92368EDB2D8
:103290001D61DAE70120DFE70120DDE70200010020
:1032A000080001002DE9F04184B004460D461646A1
:1032B0001F46C26A01680B6843F480630B60082AEA
:1032C0000DD0012A0BD012F5803F08D0036B112BD3
:1032D0000AD10268136843F48073136004E0226823
:1032E000136843F4807313600097334600224FF055
:1032F00001112046FFF7BCFE98B92369B3F5804F52
:1033000019D1236845F00105EDB21D613B463246F7
:103310002A492046FFF701FF00284CD104B0BDE840
:10332000F08123681B6813F4807F02D04FF4007390
:1033300023640320F2E74FEAE51808F00608236843
:1033400048F0F0021A613B4632461D492046FFF71D
:10335000E4FE08B10120E1E72368EDB21D613B46C0
:10336000324616492046FFF7D8FE08B10120D5E7BE
:103370000022039223685969039199690391039983
:10338000196841F480711960009733464FF00111BC
:103390002046FFF76DFE20B9226848F0F103136163
:1033A000B4E723681B6813F4807F02D04FF40073E6
:1033B00023640320B2E70120B0E700BF0200010050
:1033C0000800010070B504460D46164623685B6987
:1033D00013F0800F21D12046FFF722FEF8B9B5F196
:1033E000FF3FF3D0FEF7BCFD801BA84201D8002DA3
:1033F000ECD123685B6913F0800FE7D100232363CE
:10340000202284F83D2084F83E30226C42F02002D5
:10341000226484F83C30012000E0002070BD0120CF
:10342000FCE700002DE9F04784B004460D4616463F
:1034300099460C9FDDF834800268136843F480637A
:1034400013600368196841F480711960CDF8008039
:103450003B4600224FF00111FFF70AFE70B95FFAF8
:1034600085FA236805F0FE051D6143463A46414949
:103470002046FFF752FE68B1012008E023681B6870
:1034800013F4807F02D04FF400732364032004B050
:10349000BDE8F0870023039323685A6903929B6970
:1034A0000393039B424639462046FFF78BFF80B9C2
:1034B000B9F1010F18D12368F6B21E6142463946B0
:1034C0002046FFF77FFF68B3236C042B24D0012034
:1034D000DDE7236C042B01D00120D8E722681368B4
:1034E00043F400731360F7E72368320A1A61424617
:1034F00039462046FFF766FF18B92368F6B21E6109
:10350000DCE7236C042B01D00120C0E7226813689C
:1035100043F400731360F7E72268136843F4007301
:103520001360D4E72268136843F480731360CDF806
:1035300000803B4600224FF001112046FFF798FD26
:1035400068B922684AF00103136143463A460949C3
:103550002046FFF7E2FD002899D0012097E7236875
:103560001B6813F4807F02D04FF4007323640320A0
:103570008DE700BF0200010070B504460D461646F7
:1035800023685B6913F0040F21D12046FFF748FD43
:10359000F8B9B5F1FF3FF3D0FEF7E2FC801BA8427B
:1035A00001D8002DECD123685B6913F0040FE7D13B
:1035B00000232363202284F83D2084F83E30226CCF
:1035C00042F02002226484F83C30012000E0002018
:1035D00070BD0120FCE770B504460D46164614E0A8
:1035E0006FF010025A6100232363202284F83D20EB
:1035F00084F83E30226C226484F83C30012025E0BF
:1036000023685B6913F0400F10D02368586910F0ED
:10361000400F1AD1586910F0100FE1D1FEF7A0FC4D
:10362000801BA842ECD8002DEFD1E9E700232363EB
:10363000202284F83D2084F83E30226C42F02002A3
:10364000226484F83C30012000E0002070BD0000BE
:10365000002800F0CC8070B5044690F83D30002B77
:1036600077D0242384F83D302268136823F00103C7
:1036700013602268136843F40043136022681368E0
:1036800023F400431360FEF789FF62685A4B9A42A5
:1036900064D85A4B98428CBF00230123002B40F082
:1036A000A8805749A1FB00318B0C25686A6822F07D
:1036B0003F0242EA91426A6021680A6A22F03F02B0
:1036C00066684D4DAE424FD8013313430B622168FB
:1036D000CA6922F44F4222F0FF026568464B9D42C0
:1036E0004CD8431E6D00B3FBF5F3013340F6FC707C
:1036F000034278D0C3F30B031A43CA6121680B68F5
:1037000023F0C003E269206A024313430B6021687F
:103710008B6823F4034323F0FF032269E06802432C
:1037200013438B602168CB6823F0FF036269A069B3
:1037300002431343CB602268136843F00103136014
:1037400000202064202384F83D30206384F83E006C
:1037500070BD80F83C30FDF7E9FF82E7294B9842C5
:103760008CBF0023012399E74FF4967505FB03F303
:10377000254DA5FB03539B090133A6E7A668BEB9F7
:10378000431E05EB450CB3FBFCF30133C3F30B0302
:10379000B3FA83F35B0943BBC6B9431E05EB45058A
:1037A000B3FBF5F30133C3F30B0343F40043A3E787
:1037B000431E05EB850C0CEB8C0CB3FBFCF30133C7
:1037C000C3F30B03B3FA83F35B09E4E7431E05EB92
:1037D000850505EB8505B3FBF5F30133C3F30B0357
:1037E00043F4404388E7042386E7012384E701206C
:1037F00070470120ACE700BFA08601007F841E0057
:1038000083DE1B43FF083D00D34D62102DE9F043DA
:1038100085B004460F46914698460C9EFEF7A0FBE5
:10382000054694F83D00C0B2202804D0022738464F
:1038300005B0BDE8F0830095192301224F492046C9
:10384000FFF716FC002840F0928094F83C30012BE2
:1038500000F08F80012384F83C3023681A6812F04E
:10386000010F03D11A6842F001021A60226813683E
:1038700023F400631360212384F83D30102384F87F
:103880003E3000232364C4F82490A4F82A80638D7A
:1038900023853B4BE3622B46324639462046FFF7F1
:1038A000A7FC0746002866D10023039323685A69C2
:1038B00003929B690393039B11E0236C042B01D0BB
:1038C0000127B4E72268136843F400731360F7E735
:1038D0002A4631462046FFF74FFE00282ED1238D81
:1038E000002B36D02A4631462046FFF76BFD0028D4
:1038F000E3D1626A236812781A61606A431C6362CA
:10390000618D89B2013989B26185238D013B9BB2FA
:1039100023852268516911F0040FD9D0002BD7D02C
:1039200043781361636A01336362638D9BB2013B29
:103930009BB26385238D013B2385C9E7236C042B50
:1039400001D0012773E72268136843F40073136002
:10395000F7E72268136843F400731360202384F8A8
:103960003D30002384F83E3084F83C305FE7022786
:103970005DE702275BE7012759E700BF020010005F
:103980000000FFFF2DE9F04389B004460F46914641
:103990009846109E00230793FEF7E2FA054694F836
:1039A0003D00C0B2202804D00227384609B0BDE847
:1039B000F08300951923012280492046FFF758FB28
:1039C000002840F07A8194F83C30012B00F0778198
:1039D000012384F83C3023681A6812F0010F03D1E8
:1039E0001A6842F001021A602268136823F4006327
:1039F0001360222384F83D30102384F83E300023E6
:103A00002364C4F82490A4F82A80638D23856C4B2A
:103A1000E3622B46324639462046FFF743FC074611
:103A2000002840F04E81238D5BB9039323685A69C7
:103A300003929A690392039A1A6842F400721A6018
:103A4000F3E0012B0FD0022B21D02268136843F43E
:103A5000806313600023069323685A6906929B696A
:103A60000693069BE1E02268136823F480631360E9
:103A700072B60023049323685A6904929A690492E7
:103A8000049A1A6842F400721A6062B6CDE02268A5
:103A9000136843F40063136072B600230593236830
:103AA0005A6905929A690592059A1A6822F4806209
:103AB0001A6062B6B9E02A4631462046FFF78BFD10
:103AC000002840F0008123681A69636A1A70636AEB
:103AD00001336362238D013B2385638D9BB2013BE0
:103AE0009BB26385A1E0009533460022354920460C
:103AF000FFF7BEFA002840F0EA802268136823F43A
:103B00008063136072B623681A69636A1A70636A05
:103B100001336362238D013B2385638D9BB2013B9F
:103B20009BB26385284B1B68DB08284AA2FB032352
:103B30001B0A03EB8303C3EBC30307930799013904
:103B400007910799002928D023685A6912F0040FB9
:103B5000F4D01A6842F400721A6023681A69636A22
:103B60001A70636A01336362238D013B2385638D81
:103B70009BB2013B9BB2638562B623681A69636A94
:103B80001A70636A01336362238D013B2385638D61
:103B90009BB2013B9BB2638547E000232363202255
:103BA00084F83D2084F83E30226C42F020022264EA
:103BB00062B684F83C300127F7E600BF020010002F
:103BC0000000FFFF040001000800002089B5F81480
:103BD0002A4631462046FFF7FEFC002879D12368AB
:103BE0001A69636A1A70636A01336362228D013A4B
:103BF00092B22285638D9BB2013B9BB263852368A1
:103C0000596911F0040F10D0032A48D023681A69AB
:103C1000636A1A70636A01336362238D013B2385F3
:103C2000638D9BB2013B9BB26385218D00293BD004
:103C30000329CDD801293FF43EAF02297FF453AFC9
:103C400000953346002224492046FFF711FA002848
:103C50003BD172B62268136843F400731360236883
:103C60001A69636A1A70636A01336362238D013BC8
:103C70002385638D9BB2013B9BB2638562B623684B
:103C80001A69636A1A70636A01336362238D013BA8
:103C90002385638D9BB2013B9BB26385C5E71A68A0
:103CA00022F480621A60B1E7202384F83D300023BB
:103CB00084F83E3084F83C3077E6022775E6022728
:103CC00073E6012771E601276FE601276DE60127FC
:103CD0006BE6012769E600BF040001002DE9F0430F
:103CE00089B004460F4690469946129E00230793DA
:103CF000FEF736F9054694F83D00C0B2202804D0FE
:103D00000227384609B0BDE8F08300951923012247
:103D100081492046FFF7ACF9002840F07C8194F8F7
:103D20003C30012B00F07981012384F83C3023687A
:103D30001A6812F0010F03D11A6842F001021A60EA
:103D40002268136823F400631360222384F83D3053
:103D5000402384F83E3000232364109B6362BDF847
:103D600044306385638D23856C4BE3620195009637
:103D70004B46424639462046FFF754FB074600288B
:103D800040F04D81238D5BB9039323685A690392F8
:103D90009A690392039A1A6842F400721A60F2E078
:103DA000012B0FD0022B21D02268136843F48063CB
:103DB00013600023069323685A6906929B69069351
:103DC000069BE0E02268136823F48063136072B6F8
:103DD0000023049323685A6904929A690492049A0E
:103DE0001A6842F400721A6062B6CCE02268136866
:103DF00043F40063136072B60023059323685A6985
:103E000005929A690592059A1A6822F480621A60EE
:103E100062B6B8E02A4631462046FFF7DCFB0028B0
:103E200040F0FF8023681A69636A1A70636A01337D
:103E30006362238D013B2385638D9BB2013B9BB263
:103E40006385A0E000953346002235492046FFF700
:103E50000FF9002840F0E9802268136823F480639A
:103E6000136072B623681A69636A1A70636A013351
:103E70006362238D013B2385638D9BB2013B9BB223
:103E80006385284B1B68DB08274AA2FB03231B0A18
:103E900003EB8303C3EBC3030793079B013B079328
:103EA000079B002B28D023685A6912F0040FF4D026
:103EB0001A6842F400721A6023681A69636A1A70F9
:103EC000636A01336362238D013B2385638D9BB25B
:103ED000013B9BB2638562B623681A69636A1A70F4
:103EE000636A01336362238D013B2385638D9BB23B
:103EF000013B9BB2638546E02363202284F83D208A
:103F000084F83E30226C42F02002226462B684F8CB
:103F10003C300127F5E600BF020010000000FFFF63
:103F2000040001000800002089B5F8142A46314633
:103F30002046FFF750FB002879D123681A69636A8D
:103F40001A70636A01336362228D013A92B222854C
:103F5000638D9BB2013B9BB263852368596911F065
:103F6000040F10D0032A48D023681A69636A1A70B4
:103F7000636A01336362238D013B2385638D9BB2AA
:103F8000013B9BB26385238D002B3BD0032BCDD807
:103F9000012B3FF43FAF022B7FF454AF0095334623
:103FA000002224492046FFF763F800283BD172B66F
:103FB0002268136843F40073136023681A69636A04
:103FC0001A70636A01336362238D013B2385638D1D
:103FD0009BB2013B9BB2638562B623681A69636A30
:103FE0001A70636A01336362238D013B2385638DFD
:103FF0009BB2013B9BB26385C5E71A6822F48062DD
:104000001A60B1E7202384F83D30002384F83E3065
:1040100084F83C3075E6022773E6022771E6012733
:104020006FE601276DE601276BE6012769E60127A8
:1040300067E600BF0400010070477047704708B58D
:1040400090F83D30DAB2438D9BB283B1416A036888
:1040500009781961436A01334362438D9BB2013B86
:104060009BB24385438D9BB20BB9292A00D008BD72
:104070000268536823F48063536021230363282379
:1040800080F83D30FFF7DAFFF1E7704708B590F8A8
:104090003D30DAB2438D9BB283B103681969436A3C
:1040A0001970436A01334362438D9BB2013B9BB25B
:1040B0004385438D9BB20BB92A2A00D008BD026804
:1040C000536823F48063536022230363282380F81A
:1040D0003D30FFF7DAFFF1E7704700B583B090F8A5
:1040E0003D3003F02803282B0CD0002301930268F5
:1040F0005169019192690192019A80F83C3003B0B4
:104100005DF804FB0268536823F48063536011F088
:10411000040F0BD0002311F0800F09D182890021F8
:1041200080F83C101946FFF7D7FFE8E70123F2E7D4
:10413000028BF4E77047000010B5044690F83D305C
:10414000DBB2C26A082A01D0202A01D1282B06D06E
:10415000212B1FD023686FF480625A6110BD1D4B64
:10416000E3622268536823F4E063536023686FF4CA
:1041700080625A612268136823F48063136000230D
:104180002363202284F83D2084F83E302046FFF748
:10419000D1FFE3E70F4BE36221232363202384F85D
:1041A0003D30002384F83E302268536823F4E063F6
:1041B000536023686FF480625A612268136823F4A5
:1041C000806313602046FEF753FD2046FFF736FF5D
:1041D000C4E700BF0000FFFF704708B5C26A90F84F
:1041E0003D30DBB2212B00D008BD438D9BB263B1C3
:1041F000426A036812781A61436A01334362438D4D
:104200009BB2013B9BB24385EEE7082A04D0202AEB
:1042100002D012F5803F19D10268536823F4E0639D
:1042200053600268136843F4007313600023036350
:10423000202380F83D3090F83E30DBB2402B15D083
:10424000002380F83E30FFF7F7FECDE702685368A1
:1042500023F4E063536011230363002380F83E30AE
:10426000202380F83D30FFF7E7FEBDE7002380F80C
:104270003E30FFF7B1FFB7E708B590F83D30026D6B
:104280009AB9C36C012B08D0836C0268C3F307236F
:104290001361036D0133036508BD836C0268DBB2F3
:1042A0001361036D02330365F6E7DBB2026D012A89
:1042B00023D0026D022A3ED1222B26D0428D92B20B
:1042C0000AB1212B2AD0428D92B2002AE4D1212BAF
:1042D000E2D10268536823F4E06353600268136814
:1042E00043F40073136000230363202280F83D2011
:1042F00080F83E30FFF770FFCEE7836C0268DBB2D8
:104300001361036D01330365C6E70268136843F464
:1043100080731360036D01330365BDE7426A036870
:1043200012781A61436A01334362438D9BB2013BA9
:104330009BB24385B0E7FEF79BFCADE710B590F864
:104340003D30DBB290F83E20D2B2C46A018D002924
:104350003BD1212B02D0402A42D010BD082C04D0E2
:10436000202C02D014F5803F19D10268536823F441
:10437000E06353600268136843F400731360002322
:104380000363202380F83D3090F83E30DBB2402BB1
:1043900015D0002380F83E30FFF74EFEDDE70268BF
:1043A000536823F4E063536011230363002380F810
:1043B0003E30202380F83D30FFF73EFECDE700235E
:1043C00080F83E30FFF708FFC7E7212BC3D1438DAC
:1043D0009BB243B90268536823F480635360BCE71F
:1043E000222BBAD1F3E790F83E30DBB2402B0CD051
:1043F000426A036812781A61436A01334362438D4B
:104400009BB2013B9BB24385A7E7FFF735FFA4E7CB
:10441000704708B5C26A438D9BB2042B14D0438DFC
:104420009BB2032B22D0438D9BB2022B39D0036861
:104430001A69436A1A70436A01334362438D9BB21F
:10444000013B9BB2438510E00268536823F480630C
:10445000536003681A69436A1A70436A01334362FE
:10446000438D9BB2013B9BB2438508BD01684B68FD
:1044700023F480634B60042A06D0022A04D0026829
:10448000136823F48063136003681A69436A1A701F
:10449000436A01334362438D9BB2013B9BB2438528
:1044A000E3E7531E0F2B42D8DFE803F0083B413B04
:1044B00041414141414141414141410801680B684D
:1044C00023F480630B6003681969436A1970416AB9
:1044D0004B1C4362438D9BB2013B9BB243850368F7
:1044E0001B694B70436A01334362438D9BB2013BAE
:1044F0009BB2438501684B6823F440734B602023D3
:1045000080F83D3090F83E30DBB2402B15D00023D0
:1045100080F83E30082A17D0202A15D012230363D2
:1045200014E001680B6843F480630B60CBE701681B
:104530000B6843F400730B60C5E7002380F83E303E
:104540000363FFF765FF90E700230363FFF775FD43
:104550008BE7704738B590F83D30DBB2222B00D0A6
:1045600038BD0446C56A438D9BB2032B15D9036839
:104570001A69436A1A70436A01334362438D9BB2DE
:10458000013B9BB24385438D9BB2032BE8D102686C
:10459000536823F480635360E2E7C26A022A01D0C1
:1045A000012B05D92268536823F480635360D7E751
:1045B000FEF712FD002835D12268136823F48063CA
:1045C00013602268536823F4E063536023681A6918
:1045D000636A1A70636A01336362638D9BB2013B45
:1045E0009BB26385202384F83D3094F83E30DBB2E3
:1045F000402B09D0002384F83E30082D0CD0202D0C
:104600000AD01223236309E0002384F83E30236399
:104610002046FFF7FDFEA3E7002323632046FFF7B4
:104620000CFD9DE72268536823F4E0635360236820
:104630001A69636A1A70636A01336362638D9BB29D
:10464000013B9BB26385202384F83D30002384F82E
:104650003E302046FFF77DFF82E7704700B583B00C
:1046600000230193406A90F83D20D2B2324B1B6880
:10467000DB083249A1FB03131B0A03EB8303C3EBE3
:10468000C3030193019B43B1019B013B0193036869
:104690001B6813F4007FF5D103E0036C43F02003A3
:1046A0000364436B0BB100219962836B0BB1002152
:1046B000996201680B6823F480630B6000234385D3
:1046C000436B0BB100215963836B0BB1002159631C
:1046D00001680B6823F001030B6090F83D30DBB2FA
:1046E000602B0ED002F02802282A14D0202380F854
:1046F0003D30002380F83E30FFF72BFF03B05DF81C
:1047000004FB202380F83D30002380F83E30036412
:10471000FFF7A3FFF2E70268136843F00103136099
:104720000268136843F48063136000230363282343
:1047300080F83D30E0E700BF0800002089B5F8149C
:1047400010B5044690F83D30DBB290F83E20D2B26E
:10475000102A36D0402A34D003F02802282A38D034
:104760002268526812F4006F07D1602B05D0202315
:1047700084F83D30002384F83E300023236323680F
:104780005A6812F4006F48D05A6822F400625A60E6
:10479000626B92F82130DBB2012B20D0444B536383
:1047A000606BFEF74BF9002849D02268136823F0AC
:1047B00001031360202384F83D30606B436B9847FE
:1047C0003DE0222BC8D121680A6822F400620A6009
:1047D000C2E700232363282384F83D30CFE7A36B8F
:1047E000334A5A63A06BFEF729F940B323685A692C
:1047F00012F0400F05D01A69636A1A70636A0133B8
:1048000063622268136823F001031360202384F895
:104810003D30A06B436B984711E094F83D20D2B235
:10482000602A1FD05A6912F0400F05D01A69636AD6
:104830001A70636A013363622046FFF78AFE236CB5
:1048400013F00F0F04D02268536823F4E063536021
:1048500094F83D30DBB2226C12F0040F01D0282B0B
:1048600018D010BD202284F83D20002222645A690D
:1048700012F0400F05D01A69636A1A70636A013337
:1048800063622268136823F0010313602046FFF778
:10489000E4FED4E7074BE36200232363202284F87D
:1048A0003D2084F83E302046FFF744FCD9E700BFA6
:1048B0005D4600080000FFFF30B583B0044690F865
:1048C0003D50EDB20268536823F4E0635360002367
:1048D000019303685A6901921A6842F001021A6052
:1048E000019B0268136823F48063136003685A68AD
:1048F00012F4006F38D0222D21D02A2D1FD0426B08
:104900001268526892B24285428D92B21AB1026C1C
:1049100042F0040202645A6822F400625A60606B3A
:10492000FEF7D8F801281FD0636B444A5A63606BC6
:10493000FEF784F8C0B1606B436B984714E0A26B3C
:104940001268526892B26285628D92B21AB1226C7C
:1049500042F0040222645A6822F400625A60A06B9A
:10496000FEF7B8F8012842D1638D9BB233B32368B8
:104970005A6912F0040F0AD01A69636A1A70636ADE
:1049800001336362638D9BB2013B9BB263852368F5
:104990005A6912F0400F0AD01A69636A1A70636A82
:1049A00001336362638D9BB2013B9BB26385638D70
:1049B0009BB21BB1236C43F004032364236C13BB31
:1049C0002A2D25D094F83D30DBB2282B29D0236B3B
:1049D000222B01D0222D19D100232363202284F819
:1049E0003D2084F83E302046FFF74FFB0EE0A36BDE
:1049F000124A5A63A06BFEF721F80028B4D0A06BCE
:104A0000436B9847B0E72046FFF79AFE03B030BDEE
:104A100000232363282384F83D302046FFF735FB2D
:104A2000D0E7074BE36200232363202284F83D2074
:104A300084F83E302046FFF77DFBE7E75D4600083F
:104A40000000FFFFF8B5044602685568C66A90F892
:104A50003E30DBB290F83D10C8B2102B13D0402B83
:104A600011D0236C002B7AD05369002113F0020F70
:104A700078D015F4007F75D0236C03B1916920467E
:104A8000FFF72BFBF8BDD2F818C0516911F00107F0
:104A900005D1B6F52A0FF5D0B6F12A4FF2D017B1ED
:104AA00015F4007F29D111F0080F02D015F4007F12
:104AB0002AD111F0020F02D015F4007F28D11CF08A
:104AC000040F31D0526812F4006FDBD111F0800F67
:104AD00005D015F4806F02D011F0040F1CD011F036
:104AE000040FCFD015F4007FCCD0212818D0402B54
:104AF000C8D12046FFF7C0FBC4E72046FEF7A9FA5D
:104B00002046FEF7BDF8BDE72046FEF70DF9B9E7F0
:104B10002046FEF71FF9B5E72046FFF70FFCB1E787
:104B20002046FFF75AFBADE7536813F4006FA9D195
:104B300011F0400F05D015F4806F02D011F0040F72
:104B400009D011F0040F9DD015F4007F9AD02046B3
:104B5000FFF75FFC96E72046FFF7FCFC92E79169C0
:104B6000536983E713F0100F02D015F4007F18D1BA
:104B700021281AD0292818D013F0400F05D015F499
:104B8000806F02D013F0040F28D013F0040F3FF40D
:104B900079AF15F4007F3FF475AF2046FEF70CFAAD
:104BA00070E72046FFF788FE6CE713F0800F05D012
:104BB00015F4806F02D013F0040F0BD013F0040F24
:104BC0003FF460AF15F4007F3FF45CAF2046FEF782
:104BD000E3F957E72046FFF732FA53E72046FFF79D
:104BE00055FA4FE7F8B5044603685D695F6890F8C9
:104BF0003E20D2B2C5F3002615F4807F0DD0C7F356
:104C0000002617F4807F08D06FF480715961016825
:104C10000B6843F400430B60012615F4007F08D0B5
:104C200017F4807F05D046F0020623686FF4007108
:104C3000596115F4806F19D017F4807F16D0638DF9
:104C400099B294F83D30DBB2206B202A1BD0236848
:104C50006FF48061596146F00406102A01D0402AA1
:104C600004D12268136843F40073136015F4006FD5
:104C700017D017F4807F14D046F0080623686FF42D
:104C800000625A610EE00029E1D1212B05D0292BC9
:104C900003D0282BDBD12128D9D12046FFF74CFAAD
:104CA000E4E72EB1236C334323642046FFF748FD2D
:104CB000F8BD0000F0B583B005460C460023019313
:104CC000FDF74EF92B689A6812F4807F23D10746CE
:104CD0005A6812F4807F03D1DB6A13F4700F29D075
:104CE000504B1E680220FDF705FDB6FBF0F62B6861
:104CF00019694D4A114236D1D96802F15C4211421C
:104D000031D11969494A114240D1DA68484B1A42F7
:104D10003ED0292341E0AB6A43F02003AB6200237D
:104D200085F82430012003B0F0BD2B681B6813F018
:104D3000020F0FD02B681B6813F0020F4FD1B4F194
:104D4000FF3FF7D0002CF0D0FDF70AF9C31BA342B8
:104D5000F0D9EAE7AB6A43F00403AB62002385F8BD
:104D600024300320DFE71969304A114204D1D968A1
:104D700002F16E4211420DD019692E4A0A405AB909
:104D8000DA682C4B13405BB1FC2306E0292304E0D6
:104D9000142302E0542300E0FC2303FB06F607E0A3
:104DA0005423FAE7019BB34210D3019B01330193D3
:104DB000019BB34213D2B4F1FF3FF6D0002CF1D0E7
:104DC000FDF7CEF8C01BA042EFD9EBE7AB6A43F08A
:104DD0000403AB62002385F824300320A3E72B688B
:104DE0006FF012021A60AB6A43F40073AB622B6877
:104DF0009B6803F46023B3F5602F01D0002092E795
:104E0000287B60B9AB6A23F48073AB62AB6A13F49E
:104E1000805F88D1AB6A43F00103AB6283E7002077
:104E200081E700BF080000202449922492244912FF
:104E300092244900499224000368D86C704700000E
:104E400030B482B00022019290F82420012A00F0B0
:104E50008F800346012280F824204A68062A2DD834
:104E60000468606B02EB8202053A4FF01F0C0CFAEB
:104E700002FC20EA0C000D6805FA02F202436263AC
:104E80000A68092A38D91C68E06802EB42021E3A17
:104E90004FF0070C0CFA02FC20EA0C008D6805FAB2
:104EA00002F20243E2600A68103A012A34D9002073
:104EB000002283F8242002B030BC70470C2A0DD8A1
:104EC0000568286B02EB8202233A1F24944020EAF3
:104ED00004000C68944020432863D1E70568E86A21
:104EE00002EB8202413A1F24944020EA04000C683D
:104EF00094402043E862C3E71C68206902EB420249
:104F00004FF0070C0CFA02FC20EA0C008D6805FA41
:104F100002F202432261C6E71A681648824205D0AF
:104F20009A6A42F020029A620120C1E7906810F468
:104F3000000F1BD1906840F4000090600A68102AAE
:104F400001D00020B4E70C4A12680C49A1FB021200
:104F5000920C02EB82025200019202E0019A013AA5
:104F60000192019A002AF9D10020A1E700209FE7D1
:104F70000220A0E7002401400800002083DE1B433C
:104F800030B583B00023019303689A6812F0010FD3
:104F900033D104469A6842F001029A60184B1B68AC
:104FA000184AA2FB03239B0C019302E0019B013BE7
:104FB0000193019B002BF9D1FCF7D2FF0546236832
:104FC0009B6813F0010F16D1FCF7CAFF431B022B9D
:104FD000F5D923689B6813F0010FF0D1A36A43F061
:104FE0001003A362E36A43F00103E362002384F841
:104FF0002430012002E0002000E0002003B030BD9A
:105000000800002083DE1B4390F82430012B68D079
:1050100010B50446012380F82430FFF7B1FF0028C3
:105020005BD1A36A23F4407323F0010343F480733C
:10503000A36223682C4A934227D0A26A22F48012EA
:10504000A2625A6812F4806F05D0A26A22F440521C
:1050500042F48052A262A26A12F4805F2BD0E26A0C
:1050600022F00602E262002284F824206FF002029D
:105070001A6023689A6802F46022B2F5602F1DD08E
:105080009A6842F480129A602AE0A2F5806252681F
:1050900012F4702FD1D0A26A42F48012A262134A95
:1050A000526812F4806FD6D0A26A22F4405242F4C1
:1050B0008052A262CFE70022E262D4E70A4A93421A
:1050C00004D09A6842F4A0029A6009E0A2F58062D6
:1050D000526812F4702FD3D1F3E7002384F8243000
:1050E00010BD0220704700BF00280140002401408D
:1050F00038B503689A6812F0010F01D1002038BD5D
:1051000004469A6822F001029A60FCF729FF0546DE
:1051100023689B6813F0010F13D0FCF721FF431B9A
:10512000022BF5D923689B6813F0010FF0D0A36A16
:1051300043F01003A362E36A43F00103E36201203A
:10514000DDE70020DBE7000000287BD070B50446D7
:10515000836A002B4DD02046FFF7CAFFA36A13F0E5
:10516000100369D1002867D1A26A22F4885222F084
:10517000020242F00202A2626268E1690A43217BF4
:1051800042EA4102A568B5F5807F02D0012D36D0F4
:105190001D46267D012E35D02668716821F46941AF
:1051A000294371602568AE68274931401143A960E1
:1051B000A168B1F5807F01D0012902D12369013BAB
:1051C0001B052568E96A21F470010B43EB62236833
:1051D00099681E4B0B409A4225D0A36A23F0120314
:1051E00043F01003A362E36A43F00103E36201208A
:1051F00027E0C36280F82430FCF768FAABE74FF48D
:105200008075C6E731B9A169013945EA413141F4F8
:105210000065C1E7A16A41F02001A162E16A41F0A5
:105220000101E162B8E70023E362A36A23F003030C
:1052300043F00103A36204E0A36A43F01003A362F6
:10524000012070BD01207047FDF7E1FFFE0E1FFF3A
:10525000FDF7BCFC0B480C490C4A002302E0D45873
:10526000C4500433C4188C42F9D3094A094C0023B2
:1052700001E013600432A242FBD300F0FBFEFBF717
:105280003FFF704700000020D40100202C8300085D
:10529000D4010020BC040020FEE700001FB5144626
:1052A0001A46094B05461B68D8684CB1074BCDE937
:1052B000013400912B46064900F00CFD00F00FFF71
:1052C000044B1C46F3E700BF18000020A87F00082D
:1052D000B57F0008E37F0008002B2DE9F0471D464D
:1052E000BBBF03F100431D4600232D2388B01446A5
:1052F000B8BF1446129A109E1370149BDDF84CA090
:1053000023F02008B8F1460F05D0B8F1450F00D1C1
:105310000136022300E0032307AA049206AACDE97E
:1053200002A2CDE9003622462B4600F069FFB8F113
:10533000470F074619D1119BDB070ED500EB060975
:105340000022002320462946FBF70EFB08B1CDF8CA
:105350001C903022079B4B451ED33846079B159A5D
:10536000DB1B136008B0BDE8F087B8F1460F00EB17
:105370000609E5D10378302B0AD10022002320460C
:105380002946FBF7F1FA18B9C6F10106CAF8006020
:10539000DAF800309944D3E7591C07911A70D9E71D
:1053A000F7B50029B6BF2D232B23494209290270E6
:1053B000437029DD0DF107031D460A27B1FBF7F6FF
:1053C0001A4607FB1614303402F8014C0C46632CC5
:1053D000314603F1FF33F1DC3031941E03F8011C38
:1053E0002346411CAB420AD30DF109039B1AAC4280
:1053F00088BF002302330344181A03B0F0BD13F82A
:10540000016B01F8016FEDE7302330318370C1701B
:10541000031DF1E72DE9F04F91B00C46DDF86880EF
:1054200016461F46054600F0D5FD0368184608934A
:10543000FAF76EFE00230E93D8F800300990073378
:1054400023F0070303F1080294F818A0D4F800B081
:10545000C8F80020D3E9008929F000430B93CDF868
:1054600028804FF0FF32DDE90A01C4E912899C4B24
:10547000FBF7ACFA70BBDDE90A014FF0FF32984B45
:10548000FBF786FA30BB0022002340464946FBF773
:1054900075FA10B12D2384F84330924A924BBAF139
:1054A000470F8CBF9046984603234FF000092361B5
:1054B0002BF00403236033462146284600970FAAA9
:1054C00000F0D4F9013040F090804FF0FF3011B07F
:1054D000BDE8F08F42464B4640464946FBF776FA18
:1054E00048B14B46002BB8BF2D23804AB8BF84F883
:1054F00043307F4BD3E763680AF0DF015A1C3FD18A
:105500000623636000224BF48063236006920EAA98
:10551000CDE904A20DAA03920DF13302CDE90132C7
:1055200063684246009328464B460A91FFF7D4FE33
:105530000A99804647290D9928D1C81C02DB636867
:10554000994240DDAAF1020A5FFA8AFA524601390D
:1055500004F150000D91FFF723FF0E9A81461318B6
:10556000012A236102DC2268D20701D501332361BD
:105570009DF83330002B9ED02D2384F843309AE7DA
:105580004729BFD1002BBDD10123BAE7BAF1650F7E
:10559000DCD9BAF1660F18D1002963680BDD2161EF
:1055A00013B92268D00702D501330B4423614FF0B1
:1055B0000009A165DCE713B92268D20701D50233DF
:1055C000F4E70123F2E74FF0670A0E9B994205DBEF
:1055D00023682161D807EAD54B1CE7E70029CCBF37
:1055E0000122C1F102021344E0E723685A0507D4FF
:1055F0002369424631462846B84701302BD164E73B
:10560000BAF1650F40F2DC80D4E9120100220023D8
:10561000FBF7AAF9002833D0012331462846354A42
:10562000B84701303FF451AFDDE90D38434502DBA7
:105630002368D8070FD5DDE9082331462846B84747
:1056400001303FF442AF4FF0000908F1FF3804F198
:105650001A0AC84509DC23689B0700F10281E0684B
:105660000F9B9842B8BF184631E701235246314696
:105670002846B84701303FF428AF09F10109E8E7AF
:105680000D9B002B38DC012331462846194AB847C8
:1056900001303FF41AAFDDE90D3959EA030302D1B5
:1056A0002368D907D7D5DDE9082331462846B8470E
:1056B00001303FF40AAF4FF0000A04F11A0B0D9BC2
:1056C0005B42534501DC4B4693E701235A46314682
:1056D0002846B84701303FF4F8AE0AF1010AEEE778
:1056E000FFFFEF7FE87F0008E47F0008F07F0008FD
:1056F000EC7F0008F47F0008A36DDDF838A0534567
:10570000A8BF5346002B994636DC4FF0000B29EA20
:10571000E97904F11A02A36D0A93A3EB09035B452F
:1057200031DC0D9B9A453ADC2368DA0737D40D9BB0
:10573000AAEB03090A9BAAEB03039945A8BF994664
:10574000B9F1000F33DC4FF0000829EAE97904F1E0
:105750001A0B0D9BAAEB0303A3EB090343457FF749
:105760007AAF01235A4631462846B84701303FF404
:10577000ACAE08F10108ECE7424631462846B8478E
:105780000130C2D1A1E60123314628460A92B8472A
:1057900001303FF49AAE0A9A0BF1010BBBE7314698
:1057A000DDE908232846B8470130C0D18DE60A9AC2
:1057B0004B46314628464244B8470130C3D184E6BF
:1057C000DDF838A0BAF1010F01DCDB0736D5012383
:1057D000424631462846B84701303FF476AEDDE90F
:1057E000082331462846B84701303FF46EAED4E96D
:1057F0001201002200230AF1FF3AFBF7B5F8C0B905
:10580000534608F1010231462846B84701300CD111
:105810005BE601235A4631462846B84701303FF43B
:1058200054AE08F10108D045F3DB4B4604F15002B9
:10583000E0E64FF0000804F11A0BF4E701234246BA
:10584000E1E701234A4631462846B84701303FF494
:105850003CAE08F10108E3680F995B1A4345F0DCA0
:10586000FDE64FF0000804F11909F4E72DE9F047CF
:10587000164698468A680B6907469342B8BF134696
:10588000336091F843200C46DDF820900AB10133D3
:1058900033602368990642BF33680233336025685A
:1058A00015F0060506D104F1190AE36832689B1A5F
:1058B000AB422BDC94F843302268003B18BF012335
:1058C000920630D44146384604F14302C8470130BD
:1058D00023D02368226903F00603042B14BF00259C
:1058E00033684FF0000608BFE56804F11A0408BFEA
:1058F000ED1A54F8123C08BF25EAE5759342C4BF7F
:105900009B1AED18B5421AD1002008E00123524637
:1059100041463846C847013003D14FF0FF30BDE85B
:10592000F0870135C1E73020E11881F843005A1CA7
:1059300094F845102244023382F84310C2E7012351
:10594000224641463846C8470130E6D00136D9E7FD
:105950002DE9FF470F7E9146782F80460C469A46E8
:105960000C9E01F1430207D8622F0AD8002F00F0E5
:10597000D180582F00F0B88004F1420684F84270BC
:105980003AE0A7F16303152BF6D801A151F823F0F3
:10599000E9590008FD5900087959000879590008AB
:1059A0007959000879590008FD590008795900080B
:1059B000795900087959000879590008FB5A0008FC
:1059C000275A0008B55A0008795900087959000883
:1059D0001D5B000879590008275A0008795900080A
:1059E00079590008BD5A000833681A1D1B683260D7
:1059F00004F1420684F8423001239CE033682068B9
:105A0000191D3160060601D51D6803E04506FBD56A
:105A1000B3F90050002D03DA2D236D4284F8433092
:105A20000A23584811E021683368080653F8045BDC
:105A300002D4490648BFADB26F2F336014BF0A23AA
:105A400008235048002184F843106668002EA660A1
:105A500005DB21682E4321F0040121604BD016465E
:105A6000B5FBF3F103FB1157C75D06F8017D2F4627
:105A7000BB420D46F4D9082B0BD12368DF0708D5AC
:105A8000236961689942DEBF302306F8013C06F1C4
:105A9000FF36921B22614B4621464046CDF800A0BE
:105AA00003AAFFF7E3FE01304AD14FF0FF3004B004
:105AB000BDE8F087236843F020032360782732484D
:105AC00084F84570236831681F0651F8045B02D4DE
:105AD0005F0648BFADB23160D90744BF43F0200331
