:020000040800F2
:1000000000500020AD220008FD050008FF05000893
:1000100001060008030600080506000800000000AD
:1000200000000000000000000000000007060008BB
:1000300009060008000000000B0600080D06000875
:10004000F5220008F5220008F52200081506000830
:10005000F5220008F5220008F5220008F522000824
:10006000F5220008F5220008F5220008F522000814
:10007000F5220008F5220008F5220008F522000804
:10008000F5220008F5220008F5220008F5220008F4
:10009000F5220008F5220008F5220008F5220008E4
:1000A000F5220008F5220008F5220008F5220008D4
:1000B000F5220008F5220008F5220008F5220008C4
:1000C000F5220008F5220008F5220008F5220008B4
:1000D000F5220008F522000825060008F522000890
:1000E000F52200083D060008F52200080000000087
:1000F0000000000000000000000000000000000000
:0C01000000000000000000005FF808F1A3
:10010C000348044B834202D0034B03B1184770479A
:10011C006800002068000020000000000548064B25
:10012C001B1AD90F01EBA301491002D0034B03B1E9
:10013C00184770476800002068000020000000008D
:10014C0010B5064C237843B9FFF7DAFF044B13B113
:10015C000448AFF300800123237010BD6800002019
:10016C00000000002432000808B5054B1BB10549FE
:10017C000548AFF30080BDE80840FFF7CFBF00BFD4
:10018C00000000006C0000202432000800B589B08B
:10019C000023049305930693079303F1804303F51F
:1001AC0004339A6942F010029A619A6902F01002C3
:1001BC000192019A9A6942F020029A619A6902F0BE
:1001CC0020020292029A9A6942F004029A619B6997
:1001DC0003F004030393039B40F2131304930123D2
:1001EC0005930223079304A9024801F089FA09B088
:1001FC005DF804FB0008014008B50848084B036093
:10020C004FF4E133436000238360C36003610C222D
:10021C0042618361C36100F094FB08BD840000203F
:10022C000044004010B514464FF0FF3392B2024820
:10023C0000F0B7FB204610BD8400002070B594B0D0
:10024C00282200210DEB020002F05AFA002405943A
:10025C0006940794089409940194029403940494CA
:10026C0005230A934FF480330B9301250D950E95BE
:10027C000226119612934FF4E01313930AA800F080
:10028C0039FE0F230593069607944FF48063089369
:10029C000994314605A801F05FF801954FF480737D
:1002AC00029301A801F034F914B070BD10B500F040
:1002BC00D3FDFFF7C3FFFFF769FFFFF79DFF00F0CA
:1002CC001BF800F00DF958B1084C204600F038F935
:1002DC00204600F061F94FF47A7000F0E1FDF3E78D
:1002EC00034802F02DF9002010BD00BF780100205A
:1002FC003C3200087047000008B54FF4FA6000F07B
:10030C00CFFD064802F01CF9054802F019F9054822
:10031C0002F016F9044802F013F908BD6C3200081B
:10032C00AC320008EC3200082C330008D1F88030D5
:10033C00013303F07F03D1F88420934204D0D1F829
:10034C0080208854C1F880307047000008B50368DD
:10035C001A68D96812F0200F02D011F0200F06D1C4
:10036C0012F0800F02D011F0800F08D108BD1A686E
:10037C005868104B1968C0B2FFF7D8FFF6E70E4A61
:10038C00D2F88010D2F8842091420ED00A4AD2F8CA
:10039C008430D15CD2F88430013303F07F03C2F88F
:1003AC00843003681A685960E0E7DA6822F080024A
:1003BC00DA60DBE7CC000020D000002000B585B06F
:1003CC000DF1100C0CE90F001F4B1B78012B04D006
:1003DC001D4B187805B05DF804FB1C481C4B0360E2
:1003EC004FF0FF3343604FF48073836001F0CAFE1B
:1003FC0070B90121154801F04AFF43F2F2239842EB
:10040C0009D10221104B1970124802F031F8DFE7C4
:10041C00FFF770FFEDE79DF802300F490B709DF868
:10042C0001304B709DF800308B700122074801F0B1
:10043C00ECFC30B943F2F2220121044801F01FFF19
:10044C00DFE7FFF757FFF5E7770100206001002099
:10045C00002800406C3300085C01002000B585B01A
:10046C000DF1100C0CE90F00184B1B78022B04D06B
:10047C00164B187805B05DF804FB1548154B036056
:10048C004FF0FF3343604FF48073836001F07AFECA
:10049C00A8B99DF8053010494B709DF803308B704E
:1004AC009DF80630CB700122094801F095FD48B942
:1004BC000321064B1970094801F0DAFFD8E7FFF762
:1004CC0019FFE6E7FFF716FFF2E700BF7701002000
:1004DC006001002000280040580100209C330008D7
:1004EC0070B5124D00262E70114802F029F81148F3
:1004FC0002F026F8104C0523A37059236370267064
:10050C001223E370092363712423A3710121297041
:10051C000A4801F0ADFF94E80F00FFF74FFF94E895
:10052C000F00FFF79BFF287870BD00BF77010020FC
:10053C00CC330008F4330008880100202C34000868
:10054C0038B5104B1B78032B02D00E4B187838BDE6
:10055C0004460D4D002229460C4801F0B7FC2B78BF
:10056C0063726B782372AB78E3710421054B1970BD
:10057C00074801F07DFFE379227A617A054801F0A2
:10058C0077FFE2E777010020740100206001002072
:10059C005C3400088834000838B504460F4B1B78CF
:1005AC00042B01D0A07A38BD0D4D002229460D48F0
:1005BC0001F07CFDAB78A3726B782373EB786373DB
:1005CC000321064B1970084801F052FF637B227B14
:1005DC00A17A064801F04CFFE4E700BF7701002048
:1005EC0058010020600100205C3400089C34000895
:1005FC00FEE7FEE7FEE7FEE7FEE770477047704751
:10060C0008B500F03BFC08BD08B5024801F014FE2B
:10061C0008BD00BF6001002010B5044C204600F05E
:10062C00B3FA2046FFF792FE10BD00BF84000020F5
:10063C0008B5024801F06EFD08BD00BF6001002046
:10064C0082B00E4B9A6942F001029A619A6902F0EB
:10065C0001020092009ADA6942F08052DA61DB6999
:10066C0003F080530193019B054A536823F0E06328
:10067C0043F00073536002B0704700BF001002409B
:10068C00000001400268144B9A4200D0704700B53C
:10069C0083B001F02BFA114BDA6942F00062DA6197
:1006AC00DB6903F000630193019B0D4B0122C3F83E
:1006BC003C2400221146032001F0E6F9032001F04E
:1006CC00F3F900221146292001F0DEF9292001F06E
:1006DC00EBF903B05DF804FB002800400010024069
:1006EC000000424230B587B0002302930393049379
:1006FC00059302681B4B9A4201D007B030BD03F53D
:10070C00E633DA6942F40032DA61DA6902F4003273
:10071C000092009A9A6942F004029A619B6903F074
:10072C0004030193019B04230293022303930323E9
:10073C0005930D4D02A9284600F0E2FF0823029311
:10074C000024039404940DEB0301284600F0D8FF19
:10075C0022462146262001F097F9262001F0A4F923
:10076C00CBE700BF0044004000080140026802F1E2
:10077C000C0353E8003F23F490730C3242E8003131
:10078C000029F3D1026802F1140353E8003F23F06F
:10079C000103143242E800310029F3D1036B012B21
:1007AC0005D0202380F84230002303637047026891
:1007BC0002F10C0353E8003F23F010030C3242E823
:1007CC0000310029F3D1ECE790F84130DBB2212B5A
:1007DC0001D0022070478368B3F5805F17D0036A9D
:1007EC005A1C02621A7803685A60C38C9BB2013B94
:1007FC009BB2C3844BB90268D36823F08003D360E7
:10080C000268D36843F04003D3600020704703694B
:10081C00002BE4D1036A1B880268C3F308035360FE
:10082C00036A02330362E0E710B5044602681369F9
:10083C0023F44053C1680B4313618368026913436B
:10084C0042691A430168CB6823F4B05323F00C03BC
:10085C001343CB600268536923F4407381690B43E3
:10086C0053610268134B9A4220D000F031FE0246CD
:10087C0002EB820202EB820263689B00B2FBF3F292
:10088C000D48A0FB02314909642303FB11231B0112
:10089C003233A0FB03035B0903F0F00202EB0112FD
:1008AC0003F00F03216813448B6010BD00F020FE91
:1008BC000246DDE7003801401F85EB512DE9F0437E
:1008CC0083B005460E4617469946DDF828802B68FE
:1008DC001C6836EA04040CBF01240024BC4228D155
:1008EC00B8F1FF3FF3D000F0D5FAA0EB090040457A
:1008FC0023D8B8F1000F22D02B68DA6812F0040F5D
:10090C00E5D0802EE3D0402EE1D01A6812F0080F0B
:10091C00DDD0002401941A6801925B680193019B5D
:10092C002846FFF723FF08236B6485F8404001201D
:10093C0000E0002003B0BDE8F0830320FAE70320B9
:10094C00F8E760B310B5044690F8413013B3242394
:10095C0084F841302268D36823F40053D3602046D6
:10096C00FFF762FF2268136923F490431361226836
:10097C00536923F02A0353612268D36843F400536C
:10098C00D36000206064202384F8413084F8423026
:10099C00606310BD80F84030FFF7A4FED7E701205C
:1009AC0070472DE9F04182B01E4690F84130DBB221
:1009BC00202B56D104460D469046002955D00AB935
:1009CC0001204FE000234364212380F8413000F0E4
:1009DC0061FA0746A4F82480A4F82680A368B3F52E
:1009EC00805F02D04FF0000814E023692BB34FF066
:1009FC0000080FE0202384F84130032032E038F85F
:100A0C00023B2268C3F308035360E28C92B2013AB2
:100A1C0092B2E284E38C9BB293B100963B460022E7
:100A2C0080212046FFF74AFF0028E3D1002DE6D0B5
:100A3C0015F8012B23685A60E7E7A8460025E9E77B
:100A4C0000963B46002240212046FFF737FF18B99D
:100A5C00202384F8413005E0202384F84130032022
:100A6C0000E0022002B0BDE8F0810120FAE77047F7
:100A7C0008B50168CA6822F04002CA60202280F8DA
:100A8C004120FFF7F4FF002008BD7047704708B500
:100A9C00406A0023C385C384FFF7F8FF08BD704785
:100AAC0090F84230DBB2222B69D18368B3F5805FBA
:100ABC004FD0826AB3F5805F04D0002B56D1036906
:100ACC00002B53D103685B681370836A0133836214
:100ADC00C38D9BB2013B9BB2C385002B51D100B59A
:100AEC0083B00268D36823F02003D3600268D36814
:100AFC0023F48073D3600268536923F001035361BC
:100B0C00202380F8423000234363036B012B33D145
:100B1C0000230363026802F10C0353E8003F23F047
:100B2C0010030C3242E800310029F3D103681A6833
:100B3C0012F0100F06D0002201921A6801925B6825
:100B4C000193019B818DFFF7AAFF002003B05DF894
:100B5C0004FB0269002AACD1826A03685B68C3F3A8
:100B6C0008031380836A02338362B1E703685B680E
:100B7C0003F07F031370A8E7FFF787FFE5E7022078
:100B8C00704700207047000010B582B00446026820
:100B9C001368D068516913F00F0F09D113F0200FAF
:100BAC000CD010F0200F09D02046FFF779FF16E08B
:100BBC0011F0010115D110F4907F12D1216B012994
:100BCC0079D013F0800F03D010F0800F40F0138118
:100BDC0013F0400F03D010F0400F40F0108102B022
:100BEC0010BD13F0010F06D010F4807F03D0626C9F
:100BFC0042F00102626413F0040F04D019B1626C6C
:100C0C0042F00202626413F0020F04D019B1626C5C
:100C1C0042F00402626413F0080F07D010F0200FAA
:100C2C0000D119B1626C42F008026264626C002A55
:100C3C00D5D013F0200F02D010F0200F29D123684B
:100C4C005B6903F04003626C12F0080F00D163B3D0
:100C5C002046FFF78BFD23685B6913F0400F20D013
:100C6C00226802F1140353E8003F23F040031432CE
:100C7C0042E800310029F3D1E36B73B1624A5A6345
:100C8C00E06B00F06FFE0028A9D0E06B436B984737
:100C9C00A5E72046FFF704FFD1E72046FFF7F6FE55
:100CAC009DE72046FFF7F2FE99E72046FFF7EEFEA0
:100CBC000023636493E713F0100F82D010F0100F31
:100CCC003FF47FAF002301931368019353680193A2
:100CDC00019B536913F0400F51D0E26B13685B68B2
:100CEC009BB2002B3FF47BAFA18D99427FF677AF7F
:100CFC00E3859369202B37D0226802F10C0353E86B
:100D0C00003F23F480730C3242E800310029F3D108
:100D1C00226802F1140353E8003F23F0010314325C
:100D2C0042E800310029F3D1226802F1140353E8A0
:100D3C00003F23F04003143242E800310029F3D184
:100D4C00202384F8423000232363226802F10C0331
:100D5C0053E8003F23F010030C3242E80031002925
:100D6C00F3D1E06B00F0DAFD02236363A18DE38D18
:100D7C009BB2C91A89B22046FFF791FE2FE7A18DCD
:100D8C00E38D9BB2C91A89B2E38D9BB2002B3FF461
:100D9C0026AF00293FF423AF226802F10C0353E87D
:100DAC00003F23F490730C3242E800300028F3D15A
:100DBC00226802F1140353E8003F23F001031432BC
:100DCC0042E800300028F3D1202384F8423000237D
:100DDC002363226802F10C0353E8003F23F0100355
:100DEC000C3242E800300028F3D102236363204622
:100DFC00FFF755FEF3E62046FFF7E6FCEFE620464C
:100E0C00FFF736FEEBE600BF9B0A000810B5044660
:100E1C000E4B1A784FF47A73B3FBF2F30C4A10684A
:100E2C00B0FBF3F000F04EFE68B90F2C01D9012095
:100E3C000AE0002221464FF0FF3000F025FE054B62
:100E4C001C60002000E0012010BD00BF000000204D
:100E5C00080000200400002008B5074A136843F07E
:100E6C0010031360032000F0FDFD0F20FFF7CEFFF1
:100E7C00FFF7E6FB002008BD00200240034A116882
:100E8C00034B1B780B441360704700BF9801002084
:100E9C0000000020014B1868704700BF980100202B
:100EAC0038B50446FFF7F6FF0546B4F1FF3F02D014
:100EBC00044B1B781C44FFF7EDFF401BA042FAD3F8
:100ECC0038BD00BF0000002082B0084B1B68084AE8
:100EDC00A2FB03235B0A00FB03F3019300BF019BFE
:100EEC005A1E0192002BF9D102B070470800002065
:100EFC00D34D6210002800F0F18170B582B0044629
:100F0C00036813F0010F2CD0994B5B6803F00C03B2
:100F1C00042B1DD0964B5B6803F00C03082B12D0EE
:100F2C006368B3F5803F41D0002B55D103F180436A
:100F3C0003F504331A6822F480321A601A6822F41A
:100F4C0080221A6037E08A4B5B6813F4803FE7D04D
:100F5C00874B1B6813F4003F03D06368002B00F031
:100F6C00BF81236813F0020F75D0814B5B6813F0BF
:100F7C000C0F5FD07E4B5B6803F00C03082B54D036
:100F8C002369002B00F08A807A4B01221A60FFF74C
:100F9C0081FF0546764B1B6813F0020F75D1FFF7E6
:100FAC0079FF401B0228F5D903209EE1704A136893
:100FBC0043F480331360636843B3FFF76BFF05465C
:100FCC006B4B1B6813F4003FCBD1FFF763FF401B47
:100FDC006428F5D9032088E1B3F5A02F09D0644B20
:100FEC001A6822F480321A601A6822F480221A607D
:100FFC00E1E703F18043A3F53C331A6842F4802205
:10100C001A601A6842F480321A60D4E7FFF742FF84
:10101C000546574B1B6813F4003FA2D0FFF73AFF6D
:10102C00401B6428F5D903205FE1514B5B6813F436
:10103C00803FA5D14E4B1B6813F0020F03D02369E0
:10104C00012B40F04F814A4A136823F0F803616981
:10105C0043EAC1031360236813F0080F33D0A3696C
:10106C00002B5CD0434B0122C3F88024FFF712FF06
:10107C0005463F4B5B6A13F0020F21D1FFF70AFFC5
:10108C00401B0228F5D903202FE1394A136823F0BD
:10109C00F803616943EAC1031360DCE7354B0022B6
:1010AC001A60FFF7F7FE0546314B1B6813F0020F71
:1010BC00D1D0FFF7EFFE401B0228F5D9032014E135
:1010CC000120FFF701FF236813F0040F00F0968056
:1010DC00274BDB6913F0805F34D1254BDA6942F082
:1010EC008052DA61DB6903F080530193019B012587
:1010FC00214B1B6813F4807F26D0E368012B3DD075
:10110C00002B53D103F1804303F504331A6A22F008
:10111C0001021A621A6A22F004021A6233E0154BB9
:10112C000022C3F88024FFF7B5FE0546104B5B6A1E
:10113C0013F0020FC7D0FFF7ADFE401B0228F5D904
:10114C000320D2E00025D3E70B4A136843F48073E5
:10115C001360FFF79FFE0646074B1B6813F4807F56
:10116C00CBD1FFF797FE801B6428F5D90320BCE098
:10117C000010024000004242007000405F4A136AB7
:10118C0043F001031362E36833B3FFF783FE0646B3
:10119C005A4B1B6A13F0020F2FD1FFF77BFE801BFB
:1011AC0041F288339842F3D903209EE0052B09D0F5
:1011BC00524B1A6A22F001021A621A6A22F00402D5
:1011CC001A62E0E74D4B1A6A42F004021A621A6A7C
:1011DC0042F001021A62D6E7FFF75CFE0646474B67
:1011EC001B6A13F0020F08D0FFF754FE801B41F26C
:1011FC0088339842F3D9032077E0E5B9E369002BF3
:10120C0072D03E4A526802F00C02082A56D0022BC9
:10121C0017D03B4B00221A66FFF73CFE0446374BB7
:10122C001B6813F0007F47D0FFF734FE001B022829
:10123C00F5D9032059E0314AD36923F08053D361A7
:10124C00DCE72F4B00221A66FFF724FE05462B4BDA
:10125C001B6813F0007F06D0FFF71CFE401B022812
:10126C00F5D9032041E0236AB3F5803F1AD0234916
:10127C004B6823F47413226A606A024313434B6075
:10128C001F4B01221A66FFF705FE04461B4B1B6819
:10129C0013F0007F0ED1FFF7FDFD001B0228F5D9DE
:1012AC00032022E0154A536823F40033A1680B4352
:1012BC005360DCE7002018E0002016E0012B16D06C
:1012CC000E4B5B6803F48031226A914211D103F416
:1012DC007013626A93420ED1002006E00120704721
:1012EC00012002E0012000E0002002B070BD0120CE
:1012FC00FBE70120F9E70120F7E700BF00100240EF
:10130C00000042420F4B5B6803F00C02082A01D02C
:10131C000D487047C3F383420C49885C13F4803F3B
:10132C000BD0084B5B68C3F34043094AD35C064AB5
:10133C0002FB00F0B0FBF3F07047064B03FB00F030
:10134C00704700BF0010024000127A00B43400084D
:10135C00B034000800093D00002800F0A08070B5F2
:10136C000D460446524B1B6803F007038B420BD20D
:10137C004F4A136823F007030B431360136803F001
:10138C0007038B4240F08D80236813F0020F17D0B7
:10139C0013F0040F04D0474A536843F4E0635360DE
:1013AC00236813F0080F04D0424A536843F4605387
:1013BC005360404A536823F0F003A1680B43536019
:1013CC00236813F0010F31D06368012B20D0022B5E
:1013DC0025D0384A126812F0020F64D035494A6899
:1013EC0022F0030213434B60FFF754FD0646314BCA
:1013FC005B6803F00C036268B3EB820F16D0FFF747
:10140C0049FD801B41F288339842F0D9032045E016
:10141C00284A126812F4003FE0D101203EE0254A30
:10142C00126812F0007FD9D1012037E0204B1B68E5
:10143C0003F00703AB420AD91D4A136823F00703D4
:10144C002B431360136803F00703AB422DD12368C1
:10145C0013F0040F06D0174A536823F4E063E168D5
:10146C000B435360236813F0080F07D0114A5368DD
:10147C0023F46053216943EAC1035360FFF742FF31
:10148C000C4B5B68C3F303130B4AD35CD8400B4B78
:10149C0018600B4B1868FFF7B9FC002070BD0120D9
:1014AC0070470120FAE70120F8E70120F6E700BFBA
:1014BC000020024000100240E03400080800002028
:1014CC0004000020014B1868704700BF0800002082
:1014DC0008B5FFF7F7FF044B5B68C3F30223034A1D
:1014EC00D35CD84008BD00BF00100240D8340008BF
:1014FC0008B5FFF7E7FF044B5B68C3F3C223034A4D
:10150C00D35CD84008BD00BF00100240D83400089E
:10151C0070B582B00446036813F0010F36D03F4B10
:10152C00DB6913F0805F49D13C4BDA6942F08052A1
:10153C00DA61DB6903F080530193019B0125384B81
:10154C001B6813F4807F3BD0344B1B6A13F440733D
:10155C0013D0626802F440729A420ED02F4A136A7A
:10156C0023F440702F490126C1F840640026C1F8CD
:10157C004064106213F0010F36D1284A136A23F429
:10158C00407361680B431362002D3ED1236813F046
:10159C00020F06D0214A536823F44043A1680B4341
:1015AC005360236813F0100F34D01C4A536823F493
:1015BC008003E1680B43536000202CE00025BEE75C
:1015CC00174A136843F480731360FFF763FC0646F5
:1015DC00134B1B6813F4807FB6D1FFF75BFC801BA9
:1015EC006428F5D9032016E0FFF754FC06460B4B94
:1015FC001B6A13F0020FC0D1FFF74CFC801B41F2A9
:10160C0088339842F3D9032005E0D36923F0805343
:10161C00D361BBE7002002B070BD00BF00100240D8
:10162C00007000400000424208B502284ED010283D
:10163C0003D0012828D0002052E02B4B5A681868A0
:10164C0010F080704CD0C2F383432849C85C12F46C
:10165C00803F15D0244B5B68C3F34043244AD25CD3
:10166C00244BB3FBF2F303FB00F01F4B5B6813F44A
:10167C00800F35D14000204BA3FB003040082FE0F9
:10168C001E4B03FB00F0F0E7174B1B6A40F20232D3
:10169C001A40B2F5817F24D003F44073B3F5007F78
:1016AC0004D0B3F5407F09D0002019E00E4A526AED
:1016BC0012F0020FF5D049F6404011E00A4B1868C1
:1016CC0010F400300CD04FF2244009E0FFF710FF6B
:1016DC00054B5B68C3F3813301335B00B0FBF3F064
:1016EC0008BD4FF40040FBE700100240C83400086E
:1016FC00C434000800127A00ABAAAAAA00093D0063
:10170C0070B582B00024A446A1E07E4DAB4214D04B
:10171C000CD8A5F58015AB420FD005F57025AB4262
:10172C000BD0A5F58015AB4210D106E0764DAB423F
:10173C0003D005F58035AB4208D18B68002B50D017
:10174C00012B49D04261082400E0CC68BEF1FF0FA8
:10175C0049D806464FEA8C0233680F25954023EA98
:10176C00050304FA02F2134333604B6813F0805FF5
:10177C006BD0664B9A6942F001029A619B6903F047
:10178C0001030193019B4FEA9C02951C604B53F89B
:10179C0025600CF00305AD000F23AB4026EA0306D1
:1017AC005C4B984226D003F58063984200F08C8005
:1017BC0003F58063984200F0898003F580639842BA
:1017CC0016D0042317E0CC680434BFE7CC68083487
:1017DC00BCE7CC680C34B9E702610824B6E70024F6
:1017EC00B4E70424B2E7061DACF108029200B3E79B
:1017FC00032300E00023AB4033430232444D45F851
:10180C0022304B6813F4801F62D0434A936843EA3A
:10181C000E0393604B6813F4001F5FD03E4AD368ED
:10182C0043EA0E03D3604B6813F4003F5CD03A4A92
:10183C00536843EA0E0353604B6813F4803F59D04E
:10184C00354A136843EA0E0313600CF1010C0B6864
:10185C0033FA0CF254D0012202FA0CF203EA020E13
:10186C0032EA0303F1D14B68122B3FF64EAF122B29
:10187C003FF66CAF01A555F823F000BF47170008E1
:10188C0057170008D9170008EB170008591700085C
:10189C00591700085917000859170008591700085C
:1018AC00591700085917000859170008591700084C
:1018BC00591700085917000859170008591700083C
:1018CC00D3170008DF170008012394E7022392E7DF
:1018DC00114A936823EA0E0393609BE70E4AD36880
:1018EC0023EA0E03D3609EE70B4A536823EA0E03E8
:1018FC005360A1E7084A136823EA0E031360A4E7B8
:10190C0002B070BD00002210000031100010024027
:10191C00000001400008014000040140034690F81B
:10192C002120D2B2022A06D004228263002280F83F
:10193C0020200120704701680A6822F00E020A601C
:10194C0001680A6822F001020A60026CC06B012176
:10195C0001FA02F2426083F82110002083F8200083
:10196C007047000008B590F82130DBB2022B03D091
:10197C0004238363012008BD0268136823F00E035F
:10198C0013600268136823F0010313600368194A9B
:10199C00934214D0143293421FD0143293421ED06F
:1019AC00143293421ED0143293421ED014329342FE
:1019BC0002D04FF0807203E04FF4801200E001225D
:1019CC000D4B5A60012380F82130002380F8203021
:1019DC00436B6BB198470020CDE71022F0E74FF432
:1019EC008072EDE74FF48052EAE74FF48032E7E77C
:1019FC000020C0E70800024000000240002808DB7D
:101A0C000901C9B200F1604000F5614080F8001393
:101A1C00704700F00F000901C9B2014B195470470F
:101A2C0014ED00E000B500F00700C0F1070CBCF1AC
:101A3C00040F28BF4FF0040C031D062B0FD9C31E37
:101A4C004FF0FF3E0EFA0CF021EA000199400EFA1D
:101A5C0003FE22EA0E0241EA02005DF804FB0023B9
:101A6C00EEE70000074AD36823F4E0631B041B0C69
:101A7C00000200F4E060034343F0BF6343F400331F
:101A8C00D360704700ED00E010B50446054BD868F4
:101A9C00C0F30220FFF7C6FF01462046FFF7AEFF5A
:101AAC0010BD00BF00ED00E0002807DB00F01F02B6
:101ABC00400901239340024A42F82030704700BF8E
:101ACC0000E100E00138B0F1807F0BD24FF0E02351
:101ADC005861054AF02182F82310002098610722F2
:101AEC001A6170470120704700ED00E0014B0122A4
:101AFC001A62704700000E427047000010B5034692
:101B0C000C4A0D490D48006840B10C48006803446C
:101B1C00521A934206D8094A136010BD0748084C64
:101B2C000460F2E700F03AFE0C2303604FF0FF3044
:101B3C00F3E700BF00500020000400009C010020CF
:101B4C00F002002070B50C461646002506E0AFF3F7
:101B5C000080214601F8010B01350C46B542F6DB3D
:101B6C00304670BD4FF0FF3070474FF400534B6060
:101B7C0000207047012070470020704700B50368B3
:101B8C0099691FFA81FED8699A691FFA82FCE645A9
:101B9C0005D0D86980B240EA02405DF804FB80B2FF
:101BAC0040EA0140F9E70368186A5B6A9BB243EAB2
:101BBC0000407047002302E001330A38C0B2092804
:101BCC00FAD81B01DBB218437047030903EB8303FC
:101BDC0000F00F0000EB4300C0B2704710F0030F91
:101BEC0014D10D4BA3FB00235B09642202FB1303EE
:101BFC009BB26BB9084BA3FB0023DB094FF4C872F3
:101C0C0002FB130080B228B90120704700207047F6
:101C1C0001207047002070471F85EB5100F5FA6CCE
:101C2C00022921D801EB4103C1EBC3011E4BA3FBDD
:101C3C00013102EB5103634400F2CF7003EB9003CC
:101C4C001A4AA2FB0020A3EB501303EBD01304336E
:101C5C001748A0FB03201A1A00EB52008008C0EBB7
:101C6C00C000181AC0B2704701EB4103C1EBC301AD
:101C7C000D4BA3FB013102EB5103634403EB9C03BB
:101C8C000A4AA2FB0C12A3EB521303EBD21302333E
:101C9C000748A0FB03201A1A00EB52008008C0EB87
:101CAC00C000181ADEE700BF398EE3381F85EB51F0
:101CBC00254992242DE9F8430746894690F80F8070
:101CCC00457B867B002403E01E2E15D8013601349B
:101CDC004C4533D20C2DFAD80123AB4041F2AA5219
:101CEC001342F1D113F4256F10D113F0040FEED081
:101CFC001B2E12D80136EAE70C2D02D00135012635
:101D0C00E5E708F1010801263546E0E71D2E01D86C
:101D1C000136DCE701350126D9E71C2E04D01D2E37
:101D2C00D5D101350126D2E71FFA88F0FFF756FF0F
:101D3C0008B10136CBE701350126C8E787F80F80DB
:101D4C00E9B27973F2B2BA734046FFF767FF3873A2
:101D5C00BDE8F88338B50446FFF79CF805462368C0
:101D6C005A6812F0200F07D1FFF794F8401BB0F51A
:101D7C007A7FF4D9032004E05A6842F010025A60CA
:101D8C00002038BD38B504460268536823F01003B0
:101D9C005360FFF77FF8054623685B6813F0200F4C
:101DAC0007D1FFF777F8401BB0F57A7FF4D9032001
:101DBC0000E0002038BD38B505460C46FFF7CAFFD9
:101DCC0008B1012038BD2B68220C9A612B68A4B293
:101DDC00DC612846FFF7D6FF0028F3D00120F1E79D
:101DEC0038B505460C46FFF7B5FF08B1012038BDE4
:101DFC002B68220C1A622B68A4B25C622846FFF78F
:101E0C00C1FF0028F3D00120F1E770B5002857D0AE
:101E1C000D460646002955D0037C012B54D00123D6
:101E2C00037402234374BAB90B784C78C4EB0414D2
:101E3C00A4004FF4616202FB03448B781C442146DE
:101E4C003046FFF7B8FF0546C8B10423737400236E
:101E5C0033740125284670BD0878FFF7B6FE4FF4A1
:101E6C00616303FB00F46878FFF7AFFEC0EB001072
:101E7C0004EB8004A878FFF7A8FE0444DFE732687F
:101E8C00536823F0050353603046FFF78CFEB0F126
:101E9C00FF3F01D0844204D80123737400233374B0
:101EAC00D8E700F5A83101F5C0713046FFF798FF6F
:101EBC000028F1D004237374002333740125C9E77F
:101ECC000125C7E70125C5E70225C3E700286FD028
:101EDC002DE9F8430C461546074600296AD00368DD
:101EEC005B6813F0040F02D00120BDE8F883FFF704
:101EFC0045FE0646334BA3FB0023DB0A4FF461621D
:101F0C0002FB13023049A1FB02014809C1F347113E
:101F1C006170C0EB0010A2EB8002A2702B4A9642BB
:101F2C0010D82370002D4BD02078FFF743FE207083
:101F3C006078FFF73FFE6070A078FFF73BFEA07063
:101F4C000020D2E7224AA2FB03284FEA181808EB1C
:101F5C004802A3EBC20323703846FFF724FE8146E8
:101F6C00B0F1FF3F06D0864202D2A0EB060901E099
:101F7C004FF0FF39174B03FB186631463846FFF715
:101F8C001AFFC8B9B9F1FF3F0AD009EB0601384670
:101F9C00FFF726FF90B941463846FFF78BFEC1E7A5
:101FAC0049463846FFF71CFF0028F4D001209CE777
:101FBC0001207047012098E7012096E7012094E763
:101FCC00002092E7C5B3A291898888887F510100CF
:101FDC00ABAAAAAA8051010000285AD038B50D46E8
:101FEC000446002957D0037C012B56D001230374DF
:101FFC0002234374BAB9CB78C3734B7843738B7891
:10200C008373A27B617BE07BFFF708FE2073287053
:10201C002046FFF7B3FD224B984211D8012363747D
:10202C000020207438BDC878FFF7CFFDE0736878C6
:10203C00FFF7CBFD6073A878FFF7C7FDA073E0E74F
:10204C00184DA5FB00352D0C174B03FB1505294628
:10205C002046FFF7B0FE28B10423637400232374D9
:10206C000120DFE72046FFF79EFDB0F1FF3FD5D002
:10207C008542D3D900F5A83101F5C0712046FFF790
:10208C00AFFE0028CAD004236374002323740120FC
:10209C00C8E7012070470120C4E70220C2E700BF57
:1020AC008F5F010007452EC2805101002DE9F041E0
:1020BC0082B00023ADF804308DF8063000B30C4626
:1020CC0017460546F1B11A4601A9FFF7FFFE064671
:1020DC00E8B92B7B2370E87BE07095F80D8084F8D1
:1020EC000180AD7BA57077B1FFF764FDE0704046D1
:1020FC00FFF760FD60702846FFF75CFDA07002E002
:10210C00012600E00126304602B0BDE8F081012630
:10211C00F9E7704710B5044603681A6812F0020F0D
:10212C0003D05B6813F0020F06D1074B4FF400325B
:10213C005A610123637410BDFFF7EBFF22685368EB
:10214C0023F002035360F0E700040140C0B138B53E
:10215C0005460268536823F008035360FEF79AFEA5
:10216C0004462B685B6813F0080F07D1FEF792FE4C
:10217C00001BB0F57A7FF4D9032000E0002038BDB5
:10218C0001207047002850D010B50446437C4BB159
:10219C00022363742046FFF7D9FF38B1042363741C
:1021AC00012010BD0374FEF76DFAF1E72046FFF72E
:1021BC00D1FD28BB2268536823F007035360A36842
:1021CC0023B11B4A136B23F001031363184AD36A20
:1021DC0023F46073A1680B43D3626368B3F1FF3FD0
:1021EC0012D02268C3F30341916022689BB2D36082
:1021FC002046FFF7C7FD88B1042363740120D0E7A4
:10220C00042363740120CCE70120FFF70DFA08B119
:10221C00431EE6E7042363740120C2E70023E37343
:10222C0001236373A3736374BBE70120704700BF82
:10223C00006C00407047704703681A6812F0010F79
:10224C001CD010B504465A6812F0010F10D05B6810
:10225C0013F0040F0DD0FFF7EEFF23686FF00402AC
:10226C005A60042363742268536823F0010353609B
:10227C0010BDFFF7DFFF01236374F4E7704789009B
:10228C0001F1804101F5D84192B20A607047890092
:10229C0001F1804101F5D841086880B27047000017
:1022AC00FFF72AFC0B480C490C4A002302E0D458D7
:1022BC00C4500433C4188C42F9D3094A094C002386
:1022CC0001E013600432A242FBD300F06DFAFDF77B
:1022DC00EDFF704700000020680000202C3500083E
:1022EC0068000020EC020020FEE70000002310B57F
:1022FC000446C0E90033C0E904338360818143663E
:10230C00C2818361194608225C3000F0F9F90D4B4B
:10231C00246263620C4BA3620C4BE3620C4B236391
:10232C000C4B9C4206D003F16802944202D0D0338D
:10233C009C4205D104F15800BDE8104000F058BA99
:10234C0010BD00BF5D2500087F250008B7250008DB
:10235C00DB250008A0010020024A0349034800F0D5
:10236C0069B800BF0C000020913000081C00002050
:10237C0041680C4B10B59942044601D000F082FE26
:10238C00A168094B994202D0204600F07BFEE1681F
:10239C00064B994204D02046BDE8104000F072BEB6
:1023AC0010BD00BFA0010020080200207002002018
:1023BC0010B50B4B0B4C0C4A20461A600421002222
:1023CC00FFF794FF04F1680001220921FFF78EFF4B
:1023DC0004F1D0000222BDE810401221FFF786BFA5
:1023EC00D8020020A001002065230008014800F05D
:1023FC0000BA00BFE1020020014800F0FBB900BFA9
:10240C00E102002010B50446FFF7F0FF236A1BB170
:10241C00BDE81040FFF7F0BF044B2362044B1B6870
:10242C00002BF5D1FFF7C4FFF2E700BF7D230008B6
:10243C00D80200202DE9F8430746884614460026AA
:10244C00D4E90195B9F1010905D52468002CF7D11F
:10245C003046BDE8F883AB89012B07D9B5F90E30AE
:10246C00013303D029463846C04706436835E9E7AF
:10247C000FB407B5064904AB086853F8042B816800
:10248C00019300F0D7FA03B05DF804EB04B0704789
:10249C0018000020036A70B505460E4684680BB917
:1024AC00FFF7B0FF636EDB0705D4A389980502D450
:1024BC00A06D00F09EF9A389190702D52369002BA2
:1024CC0035D12146284600F0C5F880B34FF0FF35D2
:1024DC00636EDA0705D4A3899B0502D4A06D00F0C6
:1024EC0089F9284670BD002B04DAA2699A4217DCE0
:1024FC000A2915D023685A1C22601970A36816F893
:10250C00011F013BA3600029EDD1002B11DA2246FB
:10251C000A21284600F05FF80130D7D00A25D7E70A
:10252C002246284600F057F80130E7D1CEE7013EAD
:10253C00E4E723685A1C22600A221A70EEE70000B6
:10254C00024B01461868FFF7A5BF00BF180000201A
:10255C0010B50C46B1F90E1000F0FCF80028ABBF1A
:10256C00636DA3891B1823F48053ACBF6365A381EF
:10257C0010BD2DE9F0411F468B890546DB050C4645
:10258C00164605D502230022B1F90E1000F0D0F842
:10259C00A389324623F48053A38128463B46B4F9E1
:1025AC000E10BDE8F04100F0E7B810B50C46B1F9DB
:1025BC000E1000F0BDF8431CA38915BF606523F411
:1025CC00805343F48053A38118BFA38110BDB1F98C
:1025DC000E1000F09DB8F8B50E461446054618B11D
:1025EC00036A0BB9FFF70EFFA369A360A3891A074F
:1025FC0001D5236943B92146284600F02BF818B1C0
:10260C004FF0FF373846F8BD23682269F6B2981AA6
:10261C0063693746834205DC2146284600F032FDCB
:10262C000028EDD1A368013BA36023685A1C2260EB
:10263C001E706269431C9A4204D0A389DB07E1D562
:10264C000A2EDFD12146284600F01CFD0028D9D0E7
:10265C00D6E7000038B5294B054618680C4618B16A
:10266C00036A0BB9FFF7CEFEB4F90C30190722D46C
:10267C00DA0607D409222A6043F040034FF0FF30FA
:10268C00A38133E0580712D5616B41B104F14403C7
:10269C00994202D0284600F0AFF800236363A38967
:1026AC0023F02403A3810023636023692360A3899F
:1026BC0043F00803A38123694BB9A38903F4207366
:1026CC00B3F5007F03D02146284600F028FDB4F96D
:1026DC000C3013F001020AD00022A260626952424F
:1026EC00A261226942B913F08000C5D138BD9907A7
:1026FC0058BF6269A260F4E70020F7E718000020D9
:10270C0003460244934200D1704703F8011BF9E7DA
:10271C0038B50023054D044608462B60FFF722FA16
:10272C00431C02D12B6803B1236038BDDC020020AE
:10273C0038B50446084611460022054D2A601A4653
:10274C00FFF71AFA431C02D12B6803B1236038BD82
:10275C00DC02002038B50446084611460022054D1F
:10276C002A601A46FFF7EEF9431C02D12B6803B11D
:10277C00236038BDDC02002038B5044608461146FB
:10278C000022054D2A601A46FDF74CFD431C02D170
:10279C002B6803B1236038BDDC020020014B1868A4
:1027AC00704700BF1800002070B500260C4D0D4C72
:1027BC00641BA410A64209D100F02EFD00260A4D80
:1027CC000A4C641BA410A64205D170BD55F8043BFD
:1027DC0098470136EEE755F8043B98470136F2E787
:1027EC002435000824350008243500082835000855
:1027FC00704770477047000038B50546002940D037
:10280C0051F8043C0C1F002BB8BFE41800F0DEF8A4
:10281C001C4A136833B9636014602846BDE838401D
:10282C0000F0DAB8A34208D9206821188B4201BF06
:10283C0019685B6809182160EDE71A465B680BB1F3
:10284C00A342FAD911685018A0420BD12068014458
:10285C00501883421160E0D118685B68084410601E
:10286C005360DAE702D90C232B60D6E720682118D5
:10287C008B4201BF19685B68091821606360546062
:10288C00CBE738BDE802002070B50F4E0C4631681E
:10289C00054611B900F0A2FC30602146284600F034
:1028AC009DFC431C03D14FF0FF34204670BDC41C6B
:1028BC0024F00304A042F8D0211A284600F08EFC24
:1028CC000130F2D1EFE700BFE40200202DE9F8431C
:1028DC00CD1C25F0030508350C2D38BF0C25002D1B
:1028EC00064601DBA94204D90C2333600020BDE865
:1028FC00F883DFF8D48000F069F8D8F800301C4673
:10290C0044BB29463046FFF7BFFF431C044658D151
:10291C00D8F800402746002F43D1002C4BD0236819
:10292C003946304604EB030900F058FC814542D18E
:10293C00216830466D1A2946FFF7A6FF01303AD0C0
:10294C0023682B442360D8F800305A6862BBC8F85F
:10295C0000700FE02268521B20D40B2A17D9611982
:10296C00A342256018BF5960636808BFC8F80010FF
:10297C0062514B60304600F02FF804F10B00231D20
:10298C0020F00700C21A1CBF1B1AA350AFE76268E5
:10299C00A3420CBFC8F800205A60EBE723466468DA
:1029AC00AEE73C467F68B6E71A465B68A342FBD1AC
:1029BC0000235360DEE70C233046336000F00CF844
:1029CC0094E70560D6E700BFE80200200148FFF756
:1029DC0010BF00BFE00200200148FFF70BBF00BF93
:1029EC00E0020020936810B4013B002B936007DADF
:1029FC009469A34201DB0A2902D110BCFFF7EBBD9D
:102A0C001368581C10601970084610BC7047F8B554
:102A1C0006460F461446D518AC4201D1002007E0FB
:102A2C003A46304614F8011BFFF7DCFF431CF3D188
:102A3C00F8BD00002DE9F04F0D46144698460646A9
:102A4C009DB018B1036A0BB9FFF7DCFC6B6ED907AC
:102A5C0005D4AB899A0502D4A86DFFF7CAFEAB89E1
:102A6C001B0701D52B699BB929463046FFF7F2FDB0
:102A7C0070B16B6EDC0704D54FF0FF301DB0BDE8B4
:102A8C00F08FAB899805F7D4A86DFFF7B3FEF3E789
:102A9C000023099320238DF8293030234FF00109AE
:102AAC00CDF80C80DFF8A8818DF82A3023469A46A1
:102ABC0013F8012B0AB1252AF9D1BAEB040B0BD070
:102ACC005B46224629463046FFF7A1FF013000F055
:102ADC00A780099A5A4409929AF80030002B00F00A
:102AEC009F8000234FF0FF32CDE905230AF1010A44
:102AFC00049307938DF853301A935446052214F817
:102B0C00011B534800F07AFB049AD8B9D10644BF94
:102B1C0020238DF85330130744BF2B238DF85330EB
:102B2C009AF800302A2B15D0544600204FF00A0C8E
:102B3C00079A214611F8013B303B092B4BD9B0B118
:102B4C00079214E0A0EB080309FA03F31343A2461F
:102B5C000493D2E7039B191D1B680391002BBBBF89
:102B6C005B4242F0020207930793B8BF04922378AA
:102B7C002E2B0AD163782A2B32D1039B02341A1DD7
:102B8C001B68039243EAE3730593DFF8C8A00322A2
:102B9C005046217800F032FB38B14022049BA0EB68
:102BAC000A00824013430134049314F8011B0622DB
:102BBC0029488DF8281000F021FB00283FD0274B26
:102BCC001BBB039B073323F0070308330393099BB9
:102BDC003B4409936AE70C4601200CFB0232A8E740
:102BEC0000234FF00A0C194601340593204610F8C7
:102BFC00012B303A092A03D9002BC6D00591C4E722
:102C0C00044601230CFB0121F0E703AB00932A4699
:102C1C003046134B04A9AFF300800746781CD6D17D
:102C2C006B6ED90705D4AB899A0502D4A86DFFF752
:102C3C00E1FDAB895B063FF51FAF09981EE703ABBF
:102C4C0000932A463046064B04A900F07DF8E4E7D1
:102C5C00F0340008F6340008FA34000800000000D4
:102C6C001B2A00082DE9F047164698468A680B691E
:102C7C0007469342B8BF1346336091F843200C4685
:102C8C00DDF820900AB1013333602368990642BF06
:102C9C00336802333360256815F0060506D104F15C
:102CAC00190AE36832689B1AAB422BDC94F8433068
:102CBC002268003B18BF0123920630D441463846A7
:102CCC0004F14302C847013023D02368226903F082
:102CDC000603042B14BF002533684FF0000608BF11
:102CEC00E56804F11A0408BFED1A54F8123C08BF49
:102CFC0025EAE5759342C4BF9B1AED18B5421AD16B
:102D0C00002008E00123524641463846C8470130AE
:102D1C0003D14FF0FF30BDE8F0870135C1E730201B
:102D2C00E11881F843005A1C94F8451022440233F0
:102D3C0082F84310C2E70123224641463846C84771
:102D4C000130E6D00136D9E72DE9FF470F7E9146D9
:102D5C00782F80460C469A460C9E01F1430207D808
:102D6C00622F0AD8002F00F0D180582F00F0B880C5
:102D7C0004F1420684F842703AE0A7F16303152B84
:102D8C00F6D801A151F823F0ED2D0008012E000812
:102D9C007D2D00087D2D00087D2D00087D2D00085F
:102DAC00012E00087D2D00087D2D00087D2D0008CA
:102DBC007D2D0008FF2E00082B2E0008B92E0008D0
:102DCC007D2D00087D2D0008212F00087D2D000889
:102DDC002B2E00087D2D00087D2D0008C12E00082B
:102DEC0033681A1D1B68326004F1420684F84230C5
:102DFC0001239CE033682068191D3160060601D55B
:102E0C001D6803E04506FBD5B3F90050002D03DA2D
:102E1C002D236D4284F843300A23584811E0216871
:102E2C003368080653F8045B02D4490648BFADB2B8
:102E3C006F2F336014BF0A2308235048002184F8F5
:102E4C0043106668002EA66005DB21682E4321F036
:102E5C00040121604BD01646B5FBF3F103FB11576F
:102E6C00C75D06F8017D2F46BB420D46F4D9082BF1
:102E7C000BD12368DF0708D5236961689942DEBF4F
:102E8C00302306F8013C06F1FF36921B22614B46BB
:102E9C0021464046CDF800A003AAFFF7E3FE01301F
:102EAC004AD14FF0FF3004B0BDE8F087236843F0FF
:102EBC00200323607827324884F8457023683168F2
:102ECC001F0651F8045B02D45F0648BFADB23160F7
:102EDC00D90744BF43F0200323601DB11023ADE795
:102EEC002648E9E7236823F020032360F6E716461B
:102EFC00BDE733682568181D616930602E061B68B4
:102F0C0001D5196002E06806FBD51980002316462E
:102F1C002361BCE7336800211A1D32601E686268A9
:102F2C00304600F06BF908B1801B60606368236168
:102F3C00002384F84330AAE73246494640462369C9
:102F4C00D0470130ADD023689B0713D4E068039BB6
:102F5C009842B8BF1846A6E7012332464946404678
:102F6C00D04701309DD00135E36803995B1AAB4221
:102F7C00F2DCEBE7002504F11906F5E70135000852
:102F8C0012350008B1F90C20F8B5160705460C46A9
:102F9C0054D44B68002B02DC0B6C002B48DDE66A2A
:102FAC00002E45D0002312F480522F68216A2B602A
:102FBC0030D0626DA389590705D56368D21A636B4B
:102FCC000BB1236CD21A00232846E66A216AB0475B
:102FDC00431CA38906D129681D292BD8284ACA402D
:102FEC00D60727D5002262602269D904226004D555
:102FFC00421C01D12B6803B96065616B2F60B9B1BC
:10300C0004F14403994202D02846FFF7F5FB002354
:10301C0063630DE001232846B0470246501CC9D11A
:10302C002B68002BC6D01D2B01D0162B1DD12F6069
:10303C00002021E043F040031BB21AE00F69002F7F
:10304C00F6D0930718BF00230E6808BF4B69F61B18
:10305C000F608B60002EEBDD33463A462846216A22
:10306C00D4F828C0E047002807DCB4F90C3043F052
:10307C0040034FF0FF30A381F8BD0744361AE9E74F
:10308C000100402038B50B6905460C4613B90025E4
:10309C00284638BD18B1036A0BB9FFF7B3F9B4F978
:1030AC000C30002BF3D0626ED00704D4990502D4F7
:1030BC00A06DFFF79EFB28462146FFF763FF636E6A
:1030CC000546DA07E4D4A3899B05E1D4A06DFFF78C
:1030DC0091FBDDE770B50C46B1F90E1015460029D1
:1030EC001E4696B00CDAA389002113F0800F14BF92
:1030FC0040234FF48063002031602B6016B070BD0C
:10310C006A4600F049F80028EDDB019901F47041A2
:10311C00A1F50053594259414FF48063EBE78B8979
:10312C00F7B59D0706460C4607D504F14703236007
:10313C0023610123636103B0F0BD6A4601ABFFF765
:10314C00C9FF009F054639463046FFF7BFFB48B91B
:10315C00B4F90C309A05EED423F0030343F00203C8
:10316C00A381E2E7A389C4E9040743F08003A381A8
:10317C00019B20605BB13046B4F90E1000F01EF8D4
:10318C0028B1A38923F0030343F00103A381A3898E
:10319C001D43A581CFE7000038B50023064D04463A
:1031AC00084611462B60FEF7E0FC431C02D12B684D
:1031BC0003B1236038BD00BFDC02002038B500230A
:1031CC00054D044608462B60FEF7D4FC431C02D187
:1031DC002B6803B1236038BDDC02002038B5002316
:1031EC00054D044608462B60FEF788FC431C02D1B3
:1031FC002B6803B1236038BDDC020020034610B5F8
:10320C00C9B202449342184601D1002003E004786D
:10321C0001338C42F6D110BDF8B500BFF8BC08BC28
:10322C009E467047F8B500BFF8BC08BC9E46704778
:10323C005254435F4255473A20536F6D6574686929
:10324C006E672069732077726F6E6720696E2052EB
:10325C0054432066756E6374696F6E0D0000000038
:10326C002A2A2A3D3D3E204C4F473A20496E69742C
:10327C006C697A65642050726F6A6563743D3D3D7C
:10328C003D3D3D3D3D3D3D3D3D3D3D3D3D3D3D3D62
:10329C003D3D3D3D3D3D3D3D3D3D3D2A2A2A0D00F8
:1032AC002A2A2A3D3D3E2050726F6A6563743A208B
:1032BC00464D2056302E3320202020202020202048
:1032CC0020202020202020202020202020202020F2
:1032DC0020202020202020202020202A2A2A0D00F7
:1032EC002A2A2A3D3D3E20436F6D70616E793A204B
:1032FC0044502E477265656E7320202020202020BC
:10330C0020202020202020202020202020202020B1
:10331C0020202020202020202020202A2A2A0D00B6
:10332C002A2A2A3D3D3E20446576656C6F706564A3
:10333C002062793A20434450202020202020202055
:10334C002020202020202020202020202020202071
:10335C0020202020202020202020202A2A2A0D0076
:10336C000D0A5254432053544154453A205254436D
:10337C0020776173207365742074696D652E204D00
:10338C006F64652069733A2025640D0A0000000003
:10339C000D0A5254432053544154453A205254433D
:1033AC00205761732073657420646174652E204D01
:1033BC006F64652069733A2025640D0A00000000D3
:1033CC002D2D3E2022464D5F5254435F56307820BF
:1033DC00697320496E697469616C697A696E672ECC
:1033EC002E2E2022200D00002D2D3E2054696D65BF
:1033FC0020616E6420446174612077657265206978
:10340C006E697469616C697A65642069733A2037F6
:10341C00682D32316D696E2D303073200D00000037
:10342C005254432053544154453A2052544320574C
:10343C00617320696E7469616C697A65642E204DC4
:10344C006F64652069733A2025640D0A0000000042
:10345C000D0A5254432053544154453A205254437C
:10346C0020676574732074696D652E204D6F6465DB
:10347C002069733A2025642E2000000054696D6584
:10348C002069733A2025642025642025640D0A00E8
:10349C00446174652069733A2025642025642025D5
:1034AC00640D0A0001020000020304050607080966
:1034BC000A0B0C0D0E0F1010010200000203040584
:1034CC00060708090A0B0C0D0E0F10100000000067
:1034DC0001020304000000000000000001020304CC
:1034EC0006070809232D302B2000686C4C006566FC
:1034FC006745464700303132333435363738394139
:10350C00424344454600303132333435363738394E
:08351C00616263646566000052
:043524007501000825
:043528004D01000849
:10352C00010000001000000000127A0000000000F2
:10353C0003000000A00100201C000020000000007F
:10354C00A0010020080200207002002000000000F2
:10355C00000000000000000000000000000000005F
:10356C00000000000000000000000000000000004F
:10357C00000000000000000000000000000000003F
:08358C00000000000000000037
:04000005080022AD20
:00000001FF
